:020000040800F2
:1000000000000220311D0008191B00081F1B0008FA
:10001000251B00082B1B0008311B000800000000F6
:10002000000000000000000000000000371B000876
:10003000451B000800000000531B0008611B00085E
:10004000811D0008811D0008811D0008811D000818
:10005000811D0008811D0008811D0008811D000808
:10006000811D0008811D0008811D0008811D0008F8
:10007000811D0008811D0008811D0008811D0008E8
:10008000811D0008811D0008811D0008000000007E
:10009000000000000000000000000000811D0008BA
:1000A000811D0008811D0008811D0008811D0008B8
:1000B000811D0008811D0008811D0008811D0008A8
:1000C000811D0008811D0008811D0008811D000898
:1000D000811D0008811D0008811D0008000000002E
:1000E000811D0008811D0008811D0008000000001E
:1000F000000000000000000000000000811D00085A
:1001000000000000811D0008811D0008811D0008FD
:1001100000000000000000000000000000000000DF
:10012000811D0008811D0008811D0008811D000837
:10013000811D000800000000000000000000000019
:100140000000000000000000000000006D1B00081F
:10015000811D0008811D0008811D0008811D000807
:10016000811D0008811D0008000000000000000043
:10017000000000000000000000000000000000007F
:1001800000000000811D00080000000000000000C9
:08019000811D0008811D00081B
:1001A00010B5054C237833B9044B13B10448AFF3B1
:1001B00000800123237010BDC40200200000000055
:1001C00050D0000808B5034B1BB103490348AFF3F7
:1001D000008008BD00000000C802002050D00008C8
:1001E00001F0FF01102A2BDB10F0070F08D010F8E8
:1001F000013B013A8B422DD010F0070F42B3F6D1EC
:10020000F0B441EA012141EA014122F007047FF004
:1002100000070023F0E80256083C85EA010586EA5B
:10022000010685FA47F5A3FA87F586FA47F6A5FA97
:1002300087F68EB9EED1F0BC01F0FF0102F00702A3
:1002400032B110F8013B013A83EA010313B1F8D14E
:100250000020704701387047002D06BF354603382F
:10026000073815F0010F07D1013015F4807F02BF68
:10027000013015F4C03F0130F0BC0138704700BFB9
:10028000034613F8012B002AFBD1181A01387047D6
:1002900081F0004102E000BF83F0004330B54FEA37
:1002A00041044FEA430594EA050F08BF90EA020FA4
:1002B0001FBF54EA000C55EA020C7FEA645C7FEA37
:1002C000655C00F0E2804FEA5454D4EB5555B8BF5A
:1002D0006D420CDD2C4480EA020281EA030382EACB
:1002E000000083EA010180EA020281EA0303362D5D
:1002F00088BF30BD11F0004F4FEA01314FF4801C30
:100300004CEA113102D0404261EB410113F0004F41
:100310004FEA03334CEA133302D0524263EB4303F8
:1003200094EA050F00F0A780A4F10104D5F1200E96
:100330000DDB02FA0EFC22FA05F2801841F10001F1
:1003400003FA0EF2801843FA05F359410EE0A5F1C5
:1003500020050EF1200E012A03FA0EFC28BF4CF0F6
:10036000020C43FA05F3C01851EBE37101F00045AC
:1003700007D54FF0000EDCF1000C7EEB00006EEBB9
:100380000101B1F5801F1BD3B1F5001F0CD3490843
:100390005FEA30004FEA3C0C04F101044FEA44529A
:1003A00012F5800F80F09A80BCF1004F08BF5FEA21
:1003B000500C50F1000041EB045141EA050130BD01
:1003C0005FEA4C0C404141EB0101013C28BFB1F513
:1003D000801FE9D291F0000F04BF01460020B1FA5E
:1003E00081F308BF2033A3F10B03B3F120020CDA31
:1003F0000C3208DD02F1140CC2F10C0201FA0CF00F
:1004000021FA02F10CE002F11402D8BFC2F1200C73
:1004100001FA02F120FA0CFCDCBF41EA0C01904029
:10042000E41AA2BF01EB0451294330BD6FEA040472
:100430001F3C1CDA0C340EDC04F11404C4F120025D
:1004400020FA04F001FA02F340EA030021FA04F36F
:1004500045EA030130BDC4F10C04C4F1200220FAC6
:1004600002F001FA04F340EA0300294630BD21FA04
:1004700004F0294630BD94F0000F83F4801306BFCA
:1004800081F480110134013D4EE77FEA645C18BFBE
:100490007FEA655C29D094EA050F08BF90EA020F55
:1004A00005D054EA000C04BF1946104630BD91EA4D
:1004B000030F1EBF0021002030BD5FEA545C05D150
:1004C0004000494128BF41F0004130BD14F580048F
:1004D0003CBF01F5801130BD01F0004545F0FE4103
:1004E00041F470014FF0000030BD7FEA645C1ABF38
:1004F000194610467FEA655C1CBF0B46024650EA6F
:10050000013406BF52EA033591EA030F41F400219A
:1005100030BD00BF90F0000F04BF0021704730B520
:100520004FF4806404F132044FF000054FF00001F5
:1005300050E700BF90F0000F04BF0021704730B5B6
:100540004FF4806404F1320410F0004548BF40428B
:100550004FF000013EE700BF42004FEAE2014FEAE0
:1005600031014FEA02701FBF12F07F4393F07F4FBB
:1005700081F06051704732F07F4208BF704793F0BE
:100580007F4F04BF41F40021704730B54FF46074D1
:1005900001F0004521F000411CE700BF50EA0102D4
:1005A00008BF704730B54FF000050AE050EA01027D
:1005B00008BF704730B511F0004502D5404261EBED
:1005C00041014FF4806404F132045FEA915C3FF42E
:1005D000D8AE4FF003025FEADC0C18BF03325FEACB
:1005E000DC0C18BF033202EBDC02C2F1200300FA7C
:1005F00003FC20FA02F001FA03FE40EA0E0021FAA1
:1006000002F11444BDE600BF70B54FF0FF0C4CF48E
:10061000E06C1CEA11541DBF1CEA135594EA0C0F40
:1006200095EA0C0F00F0DEF82C4481EA030621EA7B
:100630004C5123EA4C5350EA013518BF52EA0335B6
:1006400041F4801143F4801338D0A0FB02CE4FF068
:100650000005E1FB02E506F00042E0FB03E54FF098
:100660000006E1FB03569CF0000F18BF4EF0010E90
:10067000A4F1FF04B6F5007F64F5407404D25FEA8C
:100680004E0E6D4146EB060642EAC62141EA55513F
:100690004FEAC52040EA5E504FEACE2EB4F1FD0C81
:1006A00088BFBCF5E06F1ED8BEF1004F08BF5FEAFF
:1006B000500E50F1000041EB045170BD06F00046B1
:1006C00046EA010140EA020081EA0301B4EB5C045E
:1006D000C2BFD4EB0C0541EA045170BD41F4801156
:1006E0004FF0000E013C00F3AB8014F1360FDEBF7B
:1006F000002001F0004170BDC4F10004203C35DA57
:100700000C341BDC04F11404C4F1200500FA05F3D9
:1007100020FA04F001FA05F240EA020001F000427A
:1007200021F0004110EBD37021FA04F642EB0601F0
:100730005EEA430E08BF20EAD37070BDC4F10C041A
:10074000C4F1200500FA04F320FA05F001FA04F2DE
:1007500040EA020001F0004110EBD37041F10001CA
:100760005EEA430E08BF20EAD37070BDC4F12005D5
:1007700000FA05F24EEA020E20FA04F301FA05F23D
:1007800043EA020321FA04F001F0004121FA04F2E5
:1007900020EA020000EBD3705EEA430E08BF20EAB5
:1007A000D37070BD94F0000F0FD101F000464000EF
:1007B00041EB010111F4801F08BF013CF7D041EA71
:1007C000060195F0000F18BF704703F00046520075
:1007D00043EB030313F4801F08BF013DF7D043EA46
:1007E0000603704794EA0C0F0CEA135518BF95EAFC
:1007F0000C0F0CD050EA410618BF52EA4306D1D183
:1008000081EA030101F000414FF0000070BD50EAA1
:10081000410606BF1046194652EA430619D094EA2B
:100820000C0F02D150EA013613D195EA0C0F05D115
:1008300052EA03361CBF104619460AD181EA030169
:1008400001F0004141F0FE4141F470014FF0000021
:1008500070BD41F0FE4141F4780170BD70B54FF0BC
:10086000FF0C4CF4E06C1CEA11541DBF1CEA13553C
:1008700094EA0C0F95EA0C0F00F0A7F8A4EB05041E
:1008800081EA030E52EA03354FEA013100F0888015
:100890004FEA03334FF0805545EA131343EA1263DE
:1008A0004FEA022245EA111545EA10654FEA002693
:1008B0000EF000419D4208BF964244F1FD0404F54C
:1008C000407402D25B084FEA3202B61A65EB0305A8
:1008D0005B084FEA32024FF480104FF4002CB6EB65
:1008E000020E75EB030E22BFB61A754640EA0C00E5
:1008F0005B084FEA3202B6EB020E75EB030E22BF25
:10090000B61A754640EA5C005B084FEA3202B6EB65
:10091000020E75EB030E22BFB61A754640EA9C0024
:100920005B084FEA3202B6EB020E75EB030E22BFF4
:10093000B61A754640EADC0055EA060E18D04FEAB2
:10094000051545EA16754FEA06164FEAC30343EA52
:1009500052734FEAC2025FEA1C1CC0D111F4801F1F
:100960000BD141EA00014FF000004FF0004CB6E718
:1009700011F4801F04BF01430020B4F1FD0C88BFB7
:10098000BCF5E06F3FF6AFAEB5EB030C04BFB6EBC2
:10099000020C5FEA500C50F1000041EB045170BDB5
:1009A0000EF0004E4EEA113114EB5C04C2BFD4EBE2
:1009B0000C0541EA045170BD41F480114FF0000E66
:1009C000013C90E645EA060E8DE60CEA135594EAE2
:1009D0000C0F08BF95EA0C0F3FF43BAF94EA0C0FE5
:1009E0000AD150EA01347FF434AF95EA0C0F7FF45A
:1009F00025AF104619462CE795EA0C0F06D152EAAE
:100A000003353FF4FDAE1046194622E750EA410691
:100A100018BF52EA43067FF4C5AE50EA41047FF4A2
:100A20000DAF52EA43057FF4EBAE12E74FF0FF3C07
:100A300006E000BF4FF0010C02E000BF4FF0010CD8
:100A40004DF804CD4FEA410C7FEA6C5C4FEA430C51
:100A500018BF7FEA6C5C1BD001B050EA410C0CBFA0
:100A600052EA430C91EA030F02BF90EA020F002002
:100A7000704710F1000F91EA030F58BF994208BF69
:100A800090422CBFD8176FEAE37040F00100704726
:100A90004FEA410C7FEA6C5C02D150EA013C07D17D
:100AA0004FEA430C7FEA6C5CD6D152EA033CD3D0C8
:100AB0005DF8040B704700BF8446104662468C46C2
:100AC0001946634600E000BF01B5FFF7B7FF0028F5
:100AD00048BF10F1000F01BD4DF808EDFFF7F4FF1E
:100AE0000CBF012000205DF808FB00BF4DF808EDA9
:100AF000FFF7EAFF34BF012000205DF808FB00BFCC
:100B00004DF808EDFFF7E0FF94BF012000205DF8ED
:100B100008FB00BF4DF808EDFFF7CEFF94BF0120A2
:100B200000205DF808FB00BF4DF808EDFFF7C4FF9B
:100B300034BF012000205DF808FB00BF4FEA410CE4
:100B40007FEA6C5C02D150EA013C0AD14FEA430CC7
:100B50007FEA6C5C02D152EA033C02D14FF0000004
:100B600070474FF0010070474FEA410212F5001242
:100B700015D211D56FF47873B3EB625212D94FEAE4
:100B8000C12343F0004343EA505311F0004F23FACE
:100B900002F018BF404270474FF00000704750EA23
:100BA000013005D111F0004008BF6FF000407047E0
:100BB0004FF00000704700BF4A0011D212F500123A
:100BC00011D20DD56FF47873B3EB62520ED44FEAA5
:100BD000C12343F0004343EA505323FA02F0704725
:100BE0004FF00000704750EA013002D14FF0FF3063
:100BF00070474FF0000070474FEA4102B2F1E04306
:100C000024BFB3F5001CDCF1FE5C0DD901F0004CF3
:100C10004FEAC0024CEA5070B2F1004F40EB830043
:100C200008BF20F00100704711F0804F21D113F16F
:100C30003872BCBF01F00040704741F480114FEAA8
:100C40005252C2F11802C2F1200C10FA0CF320FA31
:100C500002F018BF40F001004FEAC1234FEAD3234E
:100C600003FA0CFC40EA0C0023FA02F34FEA4303B8
:100C7000CCE77FEA625307D150EA01331EBF4FF041
:100C8000FE4040F44000704701F0004040F0FE405C
:100C900040F40000704700BF53B94AB9002908BFAB
:100CA00000281CBF4FF0FF314FF0FF3000F0A6B915
:100CB000ADF1080C6DE904CE00F03CF8DDF804E07D
:100CC000DDE9022304B0704738B500220023044652
:100CD0000D46FFF70BFF28B920462946BDE83840EE
:100CE00000F00AB8204605F1004100F005F8404246
:100CF00061EB410138BD00BFD0B50C4B0022064668
:100D00000F46FFF781FCFFF757FF0446FFF702FC91
:100D1000074B0022FFF778FC02460B463046394667
:100D2000FFF7BAFAFFF748FF2146D0BD0000F03DBB
:100D30000000F0412DE9F047089E0D4604460F469D
:100D4000002B4AD18A42944665D9B2FA82F343B164
:100D500002FA03FCC3F120029F4020FA02F217437B
:100D60009C404FEA1C4E1FFA8CF5B7FBFEF1220C9B
:100D70000EFB117742EA074201FB05F090420AD9C7
:100D80001CEB020201F1FF3780F01C81904240F21F
:100D9000198102396244121AA4B2B2FBFEF00EFBB2
:100DA000102244EA024400FB05F5A5420AD91CEBD7
:100DB000040400F1FF3280F00781A54240F2048173
:100DC0006444023840EA0140641B00211EB1DC404B
:100DD0000023C6E90043BDE8F0878B4208D9002E06
:100DE00000F0ED800021C6E900050846BDE8F08767
:100DF000B3FA83F1002949D1AB4202D3824200F217
:100E0000F880841A65EB030201201746002EE2D019
:100E1000C6E90047DFE702B9FFDEB2FA82F3002B32
:100E200040F090808A1A4FEA1C471FFA8CFE01217D
:100E3000B2FBF7F507FB1520220C42EA00420EFB3D
:100E400005F0904208D91CEB020205F1FF3802D2EE
:100E5000904200F2CB804546121AA4B2B2FBF7F0E2
:100E600007FB102244EA02440EFB00FEA64508D907
:100E70001CEB040400F1FF3202D2A64500F2BB8055
:100E80001046A4EB0E0440EA05409FE7C1F120079D
:100E90008B4022FA07FC4CEA030C05FA01F420FA15
:100EA00007F3FD404FEA1C492343B5FBF9F81FFA4D
:100EB0008CFE09FB18551C0C44EA054408FB0EF592
:100EC000A54202FA01F200FA01F00BD91CEB04046E
:100ED00008F1FF3A80F08880A54240F28580A8F1B1
:100EE00002086444641B9DB2B4FBF9F309FB13448C
:100EF00045EA044403FB0EFEA64508D91CEB040496
:100F000003F1FF356CD2A6456AD9023B644443EA3B
:100F10000843A3FB0295A4EB0E04AC42C846AE46C0
:100F200056D353D056B1B0EB080264EB0E0404FA6A
:100F300007F7CA40CC401743C6E9007418460021A1
:100F4000BDE8F087C3F1200102FA03FC20FA01F2A8
:100F500025FA01F19D402A434FEA1C471FFA8CFEF7
:100F6000B1FBF7F007FB1015110C41EA054100FB3E
:100F70000EF58D4204FA03F408D91CEB010100F1CF
:100F8000FF382FD28D422DD902386144491B92B2CD
:100F9000B1FBF7F507FB151142EA014205FB0EF123
:100FA000914208D91CEB020205F1FF3816D291429A
:100FB00014D9023D6244521A45EA004138E73146ED
:100FC000304608E73946E6E61046FBE64845A9D232
:100FD000B9EB020865EB0C0E013BA3E74546EAE7D7
:100FE0002B4694E74046D1E7D0467BE7023D62447A
:100FF00032E708460AE76444023842E7704700BF18
:1010000080B485B000AF78600B467B804FF6FF73ED
:10101000FB8142F224033B810023BB8126E0BB8994
:101020007A6813441B781B021AB2B7F90E3053408A
:101030001BB2FB810023FB7212E0B7F90E30002BCC
:1010400008DAFB895B001AB2B7F9083053401BB2CB
:10105000FB8102E0FB895B00FB81FB7A0133FB72C1
:10106000FB7A072BE9D9BB890133BB81BA897B881D
:101070009A42D4D3FB8918461437BD465DF8047BE9
:101080007047000080B584B000AF786039600023FD
:10109000FB60C7E07A68FB6813441B78FB72674B00
:1010A0001B78062B00F2BB8001A252F823F000BF90
:1010B000CD100008FD1000081F1100085111000894
:1010C0008F110008B7110008E3110008FB7AAA2B62
:1010D00040F0A280594B01221A70594B00221A800D
:1010E000584B00221A80564B1B885A1C91B2544A06
:1010F00011801946544AFB7A53548DE0534AFB7AC7
:1011000013704F4B1B885A1C91B24D4A11801946DF
:101110004D4AFB7A5354494B02221A707FE04C4AE5
:10112000FB7A1370464B1B885A1C91B2444A1180BB
:101130001946454AFB7A5354454B1B78002B03D183
:101140003E4B04221A706AE03C4B03221A7066E0A0
:101150003C4B1B885A1C91B23A4A118019463D4AB1
:10116000FB7A5354364B1B885A1C91B2344A118077
:101170001946354AFB7A5354354B1B789AB2314B9A
:101180001B889A424AD12D4B04221A7046E0FB7A02
:101190009BB21B029AB2304B1A80294B1B885A1CF7
:1011A00091B2274A11801946274AFB7A5354234BA0
:1011B00005221A7033E0FB7A9AB2274B1B8813433F
:1011C0009AB2254B1A801E4B1B885A1C91B21C4A9E
:1011D000118019461C4AFB7A5354184B06221A7088
:1011E0001DE0FB7ABB2B13D1154B1B885A1C91B207
:1011F000134A11801946144AFB7A5354114B1A882A
:10120000164B1A800E4B1A88154B1A8000F056F8B0
:101210000A4B00221A7002E000BF00E000BFFB682A
:101220000133FB603B681B68FA689A42FFF432AFF7
:1012300000BF00BF1037BD4680BD00BFE0020020E8
:10124000DE040020E0040020E4020020E20400208C
:10125000E3040020E4030020E4040020F80400205C
:10126000FA04002080B584B000AF03460A46FB7143
:101270001346BB71AA233B72FB797B720123BB72BD
:10128000BB79FB72BB7A9BB202339AB207F10803B7
:1012900011461846FFF7B4FE0346BB81BB23BB7360
:1012A000BB7A9BB206339AB207F10803114618467F
:1012B00006F010FE00BF1037BD4680BD80B586B079
:1012C00000AF624B1B8819466148FFF799FE034641
:1012D0007B82604B1B887A8A9A4207D05D4B1B88C1
:1012E00019467B8A1A465C4808F06CF95B4808F09E
:1012F000D7F95B4B1B7819465A4808F063F95A4BEB
:101300001B781946594808F05DF9594808F05AF910
:1013100000237B610AE04E4A7B6913441B7819461F
:10132000544808F04FF97B6901337B614E4B1B78C1
:101330001A467B699342EEDB0A2008F055F9484BC8
:101340001B78013B062B7BD801A252F823F000BF8B
:101350006D1300088313000891130008C3130008DD
:10136000FB1300082314000841140008424808F049
:1013700097F900210120FFF775FF404B02221A70F8
:101380005FE000F0CDF900210220FFF76BFF58E08D
:101390002F4A3B1D07CA83E80700394B00221A6019
:1013A0007B68384A1360FB68374A1360BB68374A6A
:1013B0001360324B04221A7000210320FFF752FF02
:1013C0003FE0224B1B881946214800F061F81F4B73
:1013D0001B881A462A4B1B681344294A1360284B62
:1013E0001A68284B1B689A428CBF01230023DBB28A
:1013F00019460420FFF736FF23E000233B74204BFF
:101400001A68204B1B689A4202D13B7C002B01D109
:10141000012300E00023DBB219460520FFF722FF7D
:101420000FE000237B7400F047F87B7C002B0CBF9F
:1014300001230023DBB219460620FFF713FF00E06B
:1014400000BF00BF1837BD4680BD00BFF8040020B4
:10145000E4030020E404002068D00008A0D00008C5
:10146000E2040020C0D00008E3040020D4D000082B
:10147000E8D00008F4D00008FCD00008E604002002
:10148000EC040020E8040020F0040020F404002014
:1014900080B483B000AF78600B467B807A88054BC0
:1014A0001B681344034A136000BF0C37BD465DF848
:1014B000047B7047FC04002080B400AF00BFBD4631
:1014C0005DF8047B7047000080B586B002AF03462C
:1014D000FB71FB793B7300237B7307F10C014FF425
:1014E000FA7300930123054A054802F09AFE034B64
:1014F0001B7818461037BD4680BD00BF1805002078
:101500001806002080B500AF00221021064800F028
:1015100065FF0620FFF7D8FF01221021024800F0E6
:101520005DFF00BF80BD00BF0000024080B582B0FB
:1015300000AF00237B60002210210B4800F04EFF1B
:101540000520FFF7C1FF0020FFF7BEFF03467B60C9
:1015500001221021044800F041FF7B68DBB21846ED
:101560000837BD4680BD00BF0000024080B582B094
:1015700000AF0023FB71002210211B4800F02EFF5A
:101580000520FFF7A1FF0020FFF79EFF0346FB7138
:1015900001221021144800F021FFFB7923F03C03C5
:1015A000FB7100221021104800F018FF5020FFF7B7
:1015B0008BFF012210210C4800F010FF00221021A7
:1015C000094800F00BFF0120FFF77EFFFB7918466A
:1015D000FFF77AFF00221021034800F0FFFE00BF52
:1015E0000837BD4680BD00BF0000024080B582B014
:1015F00000AF0023FB71444B1B78252B02D1FFF772
:10160000B5FF7DE0414B00221A70404B00225A701A
:101610003E4B00229A703D4B0022DA703B4B002279
:101620001A713A4B00225A71384B00229A71374B8B
:101630000022DA71354B00221A72344B00225A72A2
:10164000324B00229A72314B0022DA722F4B002269
:101650001A732E4B00225A732C4B00229A732B4B79
:101660000022DA73294B00221A74284B00225A7484
:10167000FFF748FF00221021254800F0AFFE42206E
:10168000FFF722FF1223FB7109E0FB79013B1F4AA0
:10169000D35C1846FFF718FFFB79013BFB71FB7920
:1016A000002BF2D101221021194800F097FE194BAE
:1016B0001B78EF2B24D1144B1B78402B20D1164BD9
:1016C0001B78172B1CD1FFF71DFF0022102110489B
:1016D00000F084FE0120FFF7F7FE0020FFF7F4FE84
:1016E000012210210A4800F079FE00BFFFF71EFF1B
:1016F00003461A46094B1B781340DBB2002BF5D189
:101700000837BD4680BD00BF01050020040500204C
:101710000000024000050020020500201605002000
:1017200080B500AFFFF762FFFFF7ECFE002210214B
:10173000064800F053FEC720FFF7C6FE0122102125
:10174000024800F04BFE00BF80BD00BF0000024019
:1017500080B483B000AF78607B6818460C37BD4614
:101760005DF8047B7047000080B500AF00F00AFB15
:1017700000F01CF800F0B8F800F080F806F0E8FA85
:1017800000224FF40051084800F028FE232000F00A
:101790006BFB01224FF40051034800F01FFE4FF491
:1017A000FA6000F061FBEBE70008024080B594B0FE
:1017B00000AF07F1200330220021184608F070F82E
:1017C00007F10C0300221A605A609A60DA601A610D
:1017D0000023BB60274B1B6C264A43F080531364E5
:1017E000244B1B6C03F08053BB60BB6800237B6001
:1017F000214B1B68204A43F4404313601E4B1B6877
:1018000003F440437B607B6801233B624FF48033E9
:101810007B620223BB634FF48003FB6319233B64A9
:10182000C0237B640623BB640423FB6407F120030D
:10183000184602F03DF80346002B01D000F0D6F820
:101840000F23FB6002233B6100237B610023BB610C
:101850000023FB6107F10C030121184602F0A0FAF6
:101860000346002B01D000F0C1F800BF5037BD4641
:1018700080BD00BF003802400070004080B500AF5E
:10188000174B184A1A60164B4FF482725A60144B69
:1018900000229A60124B0022DA60114B00221A617A
:1018A0000F4B00225A610E4B4FF400729A610C4BA1
:1018B0000022DA610A4B00221A62094B00225A62A6
:1018C000074B00229A62064B0A22DA62044802F0B1
:1018D0001FFC0346002B01D000F088F800BF80BD3C
:1018E000180600200030014080B58AB000AF07F133
:1018F000140300221A605A609A60DA601A610023A9
:101900003B61374B1B6B364A43F004031363344B84
:101910001B6B03F004033B613B690023FB60304B0E
:101920001B6B2F4A43F0800313632D4B1B6B03F09B
:101930008003FB60FB680023BB60294B1B6B284ABC
:1019400043F001031363264B1B6B03F00103BB60E1
:10195000BB6800237B60224B1B6B214A43F00203D0
:1019600013631F4B1B6B03F002037B607B68002239
:101970004FF400511B4800F031FD002210211A489D
:1019800000F02CFD4FF400537B610123BB61002369
:10199000FB6100233B6207F114031946114800F074
:1019A00099FB01237B610023BB610123FB6107F1EC
:1019B000140319460C4800F08DFB10237B610123B2
:1019C000BB610023FB6100233B6207F1140319464E
:1019D000054800F07FFB00BF2837BD4680BD00BF33
:1019E00000380240000802400000024080B400AF0E
:1019F00072B600BFFEE7000080B483B000AF0023E2
:101A00007B60104B5B6C0F4A43F4804353640D4B77
:101A10005B6C03F480437B607B6800233B60094B75
:101A20001B6C084A43F080531364064B1B6C03F095
:101A300080533B603B6800BF0C37BD465DF8047BBC
:101A4000704700BF0038024080B58AB000AF7860B0
:101A500007F1140300221A605A609A60DA601A6172
:101A60007B681B68284A934249D100233B61274B7E
:101A70005B6C264A43F480535364244B5B6C03F441
:101A800080533B613B690023FB60204B1B6B1F4A6B
:101A900043F0010313631D4B1B6B03F00103FB6059
:101AA000FB680023BB60194B1B6B184A43F0020311
:101AB0001363164B1B6B03F00203BB60BB68A023D0
:101AC0007B610223BB610023FB6103233B6205238F
:101AD0007B6207F1140319460D4800F0FBFA10234E
:101AE0007B610223BB610023FB6103233B6205236F
:101AF0007B6207F114031946064800F0EBFA00BFB9
:101B00002837BD4680BD00BF00300140003802408C
:101B1000000002400004024080B400AFFEE780B441
:101B200000AFFEE780B400AFFEE780B400AFFEE791
:101B300080B400AFFEE780B400AF00BFBD465DF8E3
:101B4000047B704780B400AF00BFBD465DF8047BE6
:101B5000704780B400AF00BFBD465DF8047B70479E
:101B600080B500AF00F060F900BF80BD80B500AF68
:101B7000024800F090FD00BF80BD00BF581B002050
:101B800080B400AF01231846BD465DF8047B704762
:101B900080B582B000AF7860396007F0D3FE0346AD
:101BA00016221A604FF0FF3318460837BD4680BD35
:101BB00080B582B000AF78604FF0FF317868FFF7F2
:101BC000E7FFFEE780B586B000AFF860B9607A60E5
:101BD00000237B610AE0AFF300800146BB685A1C1A
:101BE000BA60CAB21A707B6901337B617A697B681B
:101BF0009A42F0DB7B6818461837BD4680BD80B539
:101C000086B000AFF860B9607A6000237B6109E0BC
:101C1000BB685A1CBA601B781846FFF799FD7B69B0
:101C200001337B617A697B689A42F1DB7B681846F5
:101C30001837BD4680BD80B483B000AF78604FF0E8
:101C4000FF3318460C37BD465DF8047B704780B4FF
:101C500083B000AF786039603B684FF400525A603F
:101C6000002318460C37BD465DF8047B704780B4EE
:101C700083B000AF7860012318460C37BD465DF88D
:101C8000047B704780B485B000AFF860B9607A60BB
:101C9000002318461437BD465DF8047B70470000EA
:101CA00080B586B000AF7860144A154BD31A7B61BB
:101CB0007B693B61134B1B68002B02D1114B124A0D
:101CC0001A60104B1A687B6813443A699A4207D22B
:101CD00007F038FE03460C221A604FF0FF3309E08C
:101CE000084B1B68FB60074B1A687B681344054A66
:101CF0001360FB6818461837BD4680BD00000220FF
:101D00000004000070060020A823002080B400AF6B
:101D1000064BD3F88830054A43F47003C2F8883084
:101D200000BFBD465DF8047B704700BF00ED00E0DA
:101D3000DFF834D0FFF7EAFF0C480D490D4A0023C5
:101D400002E0D458C4500433C4188C42F9D30A4A70
:101D50000A4C002301E013600432A242FBD307F0D7
:101D6000F7FDFFF701FD7047000002200000002092
:101D7000C4020020A0D50008C4020020A82300202F
:101D8000FEE7000080B500AF0E4B1B680D4A43F420
:101D9000007313600B4B1B680A4A43F480631360A3
:101DA000084B1B68074A43F480731360032000F05C
:101DB0004FF90F2000F008F8FFF71EFE0023184629
:101DC00080BD00BF003C024080B582B000AF7860AB
:101DD000124B1A68124B1B7819464FF47A73B3FBF7
:101DE000F1F3B2FBF3F3184600F067F90346002B5A
:101DF00001D001230EE07B680F2B0AD800227968FE
:101E00004FF0FF3000F02FF9064A7B681360002383
:101E100000E0012318460837BD4680BD00000020C1
:101E2000080000200400002080B400AF064B1B789F
:101E30001A46064B1B681344044A136000BFBD4694
:101E40005DF8047B704700BF080000207406002086
:101E500080B400AF034B1B681846BD465DF8047B99
:101E6000704700BF7406002080B584B000AF786072
:101E7000FFF7EEFFB8607B68FB60FB68B3F1FF3FE4
:101E800005D00A4B1B781A46FB681344FB6000BF61
:101E9000FFF7DEFF0246BB68D31AFA689A42F7D80A
:101EA00000BF00BF1037BD4680BD00BF0800002046
:101EB00080B485B000AF78607B6803F00703FB60F7
:101EC0000C4BDB68BB60BA684FF6FF031340BB6086
:101ED000FB681A02BB68134343F0BF6343F400334B
:101EE000BB60044ABB68D36000BF1437BD465DF8D1
:101EF000047B704700ED00E080B400AF044BDB686A
:101F00001B0A03F007031846BD465DF8047B7047C3
:101F100000ED00E080B483B000AF0346FB7197F999
:101F20000730002B0BDBFB7903F01F02074997F901
:101F300007305B09012000FA02F241F8232000BFBC
:101F40000C37BD465DF8047B704700BF00E100E040
:101F500080B483B000AF03463960FB7197F9073056
:101F6000002B0ADB3B68DAB20C4997F90730120103
:101F7000D2B20B4483F800230AE03B68DAB2084986
:101F8000FB7903F00F03043B1201D2B20B441A7623
:101F900000BF0C37BD465DF8047B704700E100E0F0
:101FA00000ED00E080B489B000AFF860B9607A60FD
:101FB000FB6803F00703FB61FB69C3F10703042B14
:101FC00028BF0423BB61FB690433062B02D9FB69DC
:101FD000033B00E000237B614FF0FF32BB6902FA54
:101FE00003F3DA43BB681A407B699A404FF0FF3134
:101FF0007B6901FA03F3D9437B680B40134318460E
:102000002437BD465DF8047B7047000080B582B080
:1020100000AF78607B68013BB3F1807F01D301237F
:102020000FE00A4A7B68013B53600F214FF0FF30FD
:10203000FFF78EFF054B00229A60044B07221A60BF
:10204000002318460837BD4680BD00BF10E000E001
:1020500080B582B000AF78607868FFF729FF00BFD5
:102060000837BD4680BD80B586B000AF0346B96075
:102070007A60FB7300237B61FFF73EFF78617A682B
:10208000B9687869FFF78EFF024697F90F3011465D
:102090001846FFF75DFF00BF1837BD4680BD80B50D
:1020A00082B000AF0346FB7197F907301846FFF77F
:1020B00031FF00BF0837BD4680BD80B582B000AF9C
:1020C00078607868FFF7A2FF034618460837BD46D8
:1020D00080BD000080B489B000AF78603960002313
:1020E0007B6100233B610023BB610023FB6159E15D
:1020F0000122FB6902FA03F37B613B681B687A6982
:1021000013403B613A697B699A4240F048813B68E1
:102110005B6803F00303012B05D03B685B6803F0A9
:102120000303022B30D17B689B68BB61FB695B00BA
:10213000032202FA03F3DB43BA691340BB613B6835
:10214000DA68FB695B0002FA03F3BA691343BB6107
:102150007B68BA699A607B685B68BB610122FB6936
:1021600002FA03F3DB43BA691340BB613B685B6867
:102170001B0903F00102FB6902FA03F3BA69134376
:10218000BB617B68BA695A603B685B6803F0030314
:10219000032B17D07B68DB68BB61FB695B00032204
:1021A00002FA03F3DB43BA691340BB613B689A68E8
:1021B000FB695B0002FA03F3BA691343BB617B68F6
:1021C000BA69DA603B685B6803F00303022B23D132
:1021D000FB69DA087B68083253F82230BB61FB697F
:1021E00003F007039B000F2202FA03F3DB43BA69F3
:1021F0001340BB613B681A69FB6903F007039B004E
:1022000002FA03F3BA691343BB61FB69DA087B681E
:102210000832B96943F822107B681B68BB61FB690F
:102220005B00032202FA03F3DB43BA691340BB618C
:102230003B685B6803F00302FB695B0002FA03F38F
:10224000BA691343BB617B68BA691A603B685B6813
:1022500003F44033002B00F0A2800023FB60574BB7
:102260005B6C564A43F480435364544B5B6C03F4F9
:102270008043FB60FB68524AFB699B08023352F8BB
:102280002330BB61FB6903F003039B000F2202FABA
:1022900003F3DB43BA691340BB617B68494A93424D
:1022A00019D07B68484A934213D07B68474A9342CF
:1022B0000DD07B68464A934207D07B68454A9342DB
:1022C00001D1042308E0072306E0032304E00223EE
:1022D00002E0012300E00023FA6902F00302920009
:1022E0009340BA691343BB613549FB699B080233CC
:1022F000BA6941F82320384B9B68BB613B69DB43DB
:10230000BA691340BB613B685B6803F48013002B20
:1023100003D0BA693B691343BB612F4ABB69936021
:102320002D4BDB68BB613B69DB43BA691340BB6182
:102330003B685B6803F40013002B03D0BA693B6968
:102340001343BB61244ABB69D360234B5B68BB6109
:102350003B69DB43BA691340BB613B685B6803F4CC
:102360000033002B03D0BA693B691343BB611A4A9F
:10237000BB695360184B1B68BB613B69DB43BA699F
:102380001340BB613B685B6803F48033002B03D0D0
:10239000BA693B691343BB610F4ABB691360FB69B0
:1023A0000133FB61FB690F2B7FF6A2AE00BF00BFBC
:1023B0002437BD465DF8047B704700BF00380240FB
:1023C00000380140000002400004024000080240C2
:1023D000000C024000100240003C014080B483B079
:1023E00000AF78600B467B8013467B707B78002BB8
:1023F00003D07A887B689A6103E07B881A047B6843
:102400009A6100BF0C37BD465DF8047B704780B50C
:1024100086B002AF78607B68002B01D1012301E117
:102420007B681B68BB607B6893F89534DBB2002B3C
:1024300006D17B68002283F89424786805F092FE28
:102440007B68032283F89524BB68B3F1A04F02D1C7
:102450007B6800229A717B681B68184602F085FA37
:102460007B6818687B681A7C8DF8002004330ECBDB
:1024700002F064F90346002B05D07B68022283F842
:1024800095240123CEE07B681B680021184602F0EA
:102490007DFA0346002B05D07B68022283F8952441
:1024A0000123BFE00023FB734AE0FA7B79681346FF
:1024B000DB0013449B000B44153301221A70FA7B96
:1024C00079681346DB0013449B000B441433FA7BFA
:1024D0001A70FA7BFB7B98B279681346DB001344D1
:1024E0009B000B442E3302461A80FA7B7968134610
:1024F000DB0013449B000B44183300221A70FA7B54
:1025000079681346DB0013449B000B441C33002204
:102510001A60FA7B79681346DB0013449B000B4476
:10252000203300221A60FA7B79681346DB001344DB
:102530009B000B44243300221A60FB7B0133FB73A6
:102540007B681B79FA7B9A42AFD30023FB7344E08C
:10255000FA7B79681346DB0013449B000B4403F2BB
:10256000552300221A70FA7B79681346DB00134466
:102570009B000B4403F51573FA7B1A70FA7B79689C
:102580001346DB0013449B000B4403F51673002233
:102590001A70FA7B79681346DB0013449B000B44E6
:1025A00003F5177300221A60FA7B79681346DB0083
:1025B00013449B000B4403F5187300221A60FA7B46
:1025C00079681346DB0013449B000B4403F5197331
:1025D00000221A60FB7B0133FB737B681B79FA7B5B
:1025E0009A42B5D37B6818687B681A7C8DF8002006
:1025F00004330ECB02F016FA0346002B05D07B689D
:10260000022283F8952401230CE07B6800225A748F
:102610007B68012283F895247B681B68184603F0C9
:102620005AFA002318461037BD4680BD80B584B0E5
:1026300000AF78607B681B68FB607B6893F894341C
:10264000012B01D1022322E07B68012283F894242C
:10265000FB68DB6803F04003002B09D07B685B7BE1
:10266000012B05D1FB689B6B43F48032FB689A63B6
:102670007B681B68184602F067F97B681B68184680
:1026800003F008FA7B68002283F89424002318469C
:102690001037BD4680BD90B58DB000AF78607B68C7
:1026A0001B683B623B6AFB617B681B68184603F052
:1026B000C6FA0346002B40F08C847B681B681846E2
:1026C00003F02AFA0346002B00F08284FB6903F52D
:1026D00000639B681B0AC3F30D027B68C3F8D42414
:1026E0007B681B68184603F017FA034603F00203E1
:1026F000022B07D17B681B685A697B681B6802F054
:1027000002025A617B681B68184603F005FA03460B
:1027100003F01003102B61D17B681B689A697B68FA
:102720001B6822F010029A613B6A1B6ABB61BB699D
:1027300003F00F021346DB0013449B0003F51473F0
:102740007A68134404337B61BB695B0C03F00F03AD
:10275000022B24D1BA6947F6F0731340002B35D011
:102760007B69D968BB691B099BB2C3F30A039BB29F
:102770001A46386A03F03CF87B69DA68BB691B09C2
:10278000C3F30A031A447B69DA607B695A69BB693F
:102790001B09C3F30A031A447B695A6116E0BB693B
:1027A0005B0C03F00F03062B10D17B6803F29C43F4
:1027B00008221946386A03F01BF87B695A69BB691D
:1027C0001B09C3F30A031A447B695A617B681B68BF
:1027D0009A697B681B6842F010029A617B681B68EB
:1027E000184603F099F9034603F40023B3F5002FCC
:1027F00040F0A78000237B627B681B68184603F0CB
:102800009EF9B86299E0BB6A03F00103002B00F067
:102810008E807B681B687A6AD2B21146184603F034
:10282000C2F938613B6903F00103002B0CD07B6ACD
:102830005A01FB69134403F530631A460123936080
:10284000796A786800F0A2FE3B6903F00803002B68
:102850000CD07B6A5A01FB69134403F530631A46B6
:1028600008239360796A786800F078FF3B6903F089
:102870001003002B08D07B6A5A01FB69134403F54F
:1028800030631A46102393603B6903F00203002B68
:1028900030D03B6A5B6903F08003802B09D1FB6970
:1028A00003F500635B68FA6902F5006243F4806334
:1028B00053607A6A1346DB0013449B0003F51473DC
:1028C0007A68134404337B617B69DB78012B08D180
:1028D0007B690022DA707B6ADBB21946786805F002
:1028E0003DFD7B6A5A01FB69134403F530631A46C8
:1028F000022393603B6903F02003002B08D07B6A1E
:102900005A01FB69134403F530631A462023936090
:102910003B6903F40053002B09D07B6A5A01FB6921
:10292000134403F530631A464FF4005393607B6AF7
:1029300001337B62BB6A5B08BB62BB6A002B7FF41E
:1029400062AF7B681B68184603F0E6F8034603F4A1
:102950008023B3F5802F40F0DB807B681B6818462E
:1029600003F007F9B86200237B62CDE0BB6A03F095
:102970000103002B00F0C2807B681B687A6AD2B228
:102980001146184603F02DF938613B6903F0010345
:10299000002B57D07B6A03F00F03012202FA03F3E6
:1029A000FB60FB6903F500635A6BFB68DB43F96965
:1029B00001F5006113404B637B6A5A01FB691344C4
:1029C00003F510631A46012393607B689B79012B02
:1029D00032D179687A6A1346DB0013449B000B44BA
:1029E0002033196878687A6A1346DB0013449B0029
:1029F00003441C331B68194478687A6A1346DB0069
:102A000013449B000344203319607B6A002B13D1CD
:102A100079687A6A1346DB0013449B000B44243325
:102A20001B68002B08D17B6818687B6803F29C4305
:102A30001A46012103F034F97B6ADBB21946786843
:102A400005F011FC3B6903F00803002B08D07B6AFA
:102A50005A01FB69134403F510631A460823936077
:102A60003B6903F01003002B08D07B6A5A01FB6915
:102A7000134403F510631A46102393603B6903F077
:102A80004003002B08D07B6A5A01FB69134403F50D
:102A900010631A46402393603B6903F00203002B46
:102AA00023D0796A386A02F021F97A6A1346DB008A
:102AB00013449B0010337A68134404337B617B69B1
:102AC000DB78012B08D17B690022DA707B6ADBB2EC
:102AD0001946786805F054FC7B6A5A01FB69134477
:102AE00003F510631A46022393603B6903F08003E9
:102AF000002B03D0796A786800F0BBFC7B6A013355
:102B00007B62BB6A5B08BB62BB6A002B7FF42EAFA3
:102B10007B681B68184602F0FFFF034603F0004382
:102B2000B3F1004F22D1FB6903F500635B68FA69DA
:102B300002F5006223F0010353607B6893F8CC3404
:102B4000012B08D17B68002283F8CC24002178680F
:102B500000F0A2FE02E0786805F0F2FB7B681B68DB
:102B60005A697B681B6802F000425A617B681B68E7
:102B7000184602F0D1FF034603F40063B3F5006F7B
:102B800012D1FB6903F500639B6803F00103012B7D
:102B900002D1786805F0AEFB7B681B685A697B68D8
:102BA0001B6802F400625A617B681B68184602F0D9
:102BB000B3FF034603F48053B3F5805F40F0B78062
:102BC000FB6903F500635B68FA6902F5006223F0B4
:102BD000010353607B681B681021184602F086F8D9
:102BE0000023FB6246E0FB6A5A01FB69134403F5CC
:102BF00010631A464FF67F339360FB6A5A01FB69F4
:102C0000134403F510631B68FA6A5101FA690A4418
:102C100002F5106223F400131360FB6A5A01FB698A
:102C2000134403F530631A464FF67F339360FB6A13
:102C30005A01FB69134403F530631B68FA6A5101BA
:102C4000FA690A4402F5306223F400131360FB6A48
:102C50005A01FB69134403F530631B68FA6A51019A
:102C6000FA690A4402F5306243F000631360FB6ABC
:102C70000133FB627B681B791A46FB6A9342B2D32D
:102C8000FB6903F50063DB69FA6902F5006243F052
:102C90000113D3617B68DB7B002B16D0FB6903F546
:102CA0000063D3F88430FA6902F5006243F00B0345
:102CB000C2F88430FB6903F500635B6CFA6902F5C6
:102CC000006243F00B03536415E0FB6903F50063F6
:102CD0005B69FA6902F5006243F4005343F02B0389
:102CE0005361FB6903F500631B69FA6902F5006231
:102CF00043F00B031361FB6903F500631B68FA697A
:102D000002F5006223F4FE6313607B6818687B6839
:102D100099797B6803F29C431A4602F0C1FF7B68F5
:102D20001B685A697B681B6802F480525A617B6891
:102D30001B68184602F0F0FE034603F40053B3F597
:102D4000005F23D17B681B68184602F086FF7B6812
:102D50001B68184602F043F803461A467B68DA718E
:102D60007B681C6801F0C8F901467B68DB791A466C
:102D7000204601F047FD786805F09DFA7B681B68E6
:102D80005A697B681B6802F400525A617B681B68B1
:102D9000184602F0C1FE034603F00803082B0AD1CF
:102DA000786805F07AFA7B681B685A697B681B684B
:102DB00002F008025A617B681B68184602F0ACFEFC
:102DC000034603F08003802B23D13B6A9B6923F0E9
:102DD00080023B6A9A6101237B6214E079687A6A17
:102DE0001346DB0013449B000B4403F257231B786C
:102DF000012B05D17B6ADBB21946786800F008FB2D
:102E00007B6A01337B627B681B791A467B6A93423B
:102E1000E4D37B681B68184602F07EFE034603F489
:102E20008013B3F5801F3CD101237B622BE07B6ACA
:102E30005A01FB69134403F510631B68BB61796891
:102E40007A6A1346DB0013449B000B4418331B784B
:102E5000012B15D1BB69002B12DA79687A6A134607
:102E6000DB0013449B000B44173301221A707B6A6A
:102E7000DBB263F07F03DBB21946786800F0C8FA72
:102E80007B6A01337B627B681B791A467B6A9342BB
:102E9000CDD37B681B685A697B681B6802F480127B
:102EA0005A617B681B68184602F036FE034603F43D
:102EB0000013B3F5001F56D101237B6245E07B6A06
:102EC0005A01FB69134403F530631B68BB617968E1
:102ED0007A6A1346DB0013449B000B4403F5167318
:102EE0001B78012B2ED1BB69002B2BDABB6903F4B5
:102EF00080327B68D3F8D43403F001039A4221D1A5
:102F000079687A6A1346DB0013449B000B4403F292
:102F1000572301221A703B6A9B6943F080023B6A87
:102F20009A613B6A5B6903F08003002B0AD1FB695D
:102F300003F500635B68FA6902F5006243F400730D
:102F4000536008E07B6A01337B627B681B791A4619
:102F50007B6A9342B3D37B681B685A697B681B68A2
:102F600002F400125A617B681B68184602F0D4FD17
:102F7000034603F08043B3F1804F0AD1786805F02F
:102F800011FA7B681B685A697B681B6802F08042F3
:102F90005A617B681B68184602F0BEFD034603F0C9
:102FA0000403042B15D17B681B685B68BB61BB699C
:102FB00003F00403002B02D0786805F001FA7B6867
:102FC0001B6859687B681B68BA690A435A6000E04D
:102FD00000BF3437BD4690BD80B582B000AF786089
:102FE0000B46FB707B6893F89434012B01D10223CC
:102FF00012E07B68012283F894247B68FA785A7483
:103000007B681B68FA781146184602F01DFD7B6844
:10301000002283F89424002318460837BD4680BD5B
:1030200080B584B000AF7860084611461A46034662
:10303000FB700B463B801346BB700023FB7297F975
:103040000330002B0FDAFB7803F00F021346DB008E
:1030500013449B0010337A6813440433FB60FB680D
:1030600001225A700FE0FB7803F00F021346DB00D9
:1030700013449B0003F514737A6813440433FB6014
:10308000FB6800225A70FB7803F00F03DAB2FB688A
:103090001A703A88FB689A60FB68BA781A71FB6804
:1030A0005B78002B04D0FB681B789AB2FB685A83CC
:1030B000BB78022B02D1FB6800225A717B6893F81F
:1030C0009434012B01D102230EE07B68012283F8A6
:1030D00094247B681B68F968184601F0A5FE7B689C
:1030E000002283F89424FB7A18461037BD4680BD31
:1030F00080B584B000AF78600B46FB7097F9033061
:10310000002B0FDAFB7803F00F021346DB001344A9
:103110009B0010337A6813440433FB60FB68012280
:103120005A700FE0FB7803F00F021346DB001344E4
:103130009B0003F514737A6813440433FB60FB6847
:1031400000225A70FB7803F00F03DAB2FB681A70A2
:103150007B6893F89434012B01D102230EE07B6845
:10316000012283F894247B681B68F968184601F0F3
:10317000E3FE7B68002283F894240023184610376E
:10318000BD4680BD80B586B000AFF8607A603B6018
:103190000B46FB72FB7A03F00F021346DB0013446D
:1031A0009B0003F51473FA68134404337B617B6955
:1031B0007A68DA607B693A681A617B6900225A6131
:1031C0007B6900225A70FB7A03F00F03DAB27B6945
:1031D0001A70FB689B79012B02D17A687B69DA61EE
:1031E000FB681868FB689B791A46796901F080FFD3
:1031F000002318461837BD4680BD80B483B000AFA9
:1032000078600B46FB70FB7803F00F027968134679
:10321000DB0013449B000B4403F51A731B6818462C
:103220000C37BD465DF8047B704780B586B000AFB3
:10323000F8607A603B600B46FB72FB7A03F00F028A
:103240001346DB0013449B001033FA681344043325
:103250007B617B697A68DA607B693A681A617B69AD
:1032600000225A617B6901225A70FB7A03F00F0336
:10327000DAB27B691A70FB689B79012B02D17A68FC
:103280007B69DA61FB681868FB689B791A46796983
:1032900001F02EFF002318461837BD4680BD80B5CB
:1032A00084B000AF78600B46FB70FB7803F00F032F
:1032B0007A681279934201D901234FE097F90330DC
:1032C000002B0FDAFB7803F00F021346DB001344E8
:1032D0009B0010337A6813440433FB60FB680122BF
:1032E0005A700DE0FA781346DB0013449B0003F597
:1032F00014737A6813440433FB60FB6800225A702D
:10330000FB6801229A70FB7803F00F03DAB2FB68C6
:103310001A707B6893F89434012B01D102231DE0CD
:103320007B68012283F894247B681B68F96818463F
:1033300002F0B6FAFB7803F00F03002B09D17B688B
:1033400018687B6899797B6803F29C431A4602F0FF
:10335000A7FC7B68002283F89424002318461037CA
:10336000BD4680BD80B584B000AF78600B46FB7071
:10337000FB7803F00F037A681279934201D9012395
:1033800042E097F90330002B0FDAFB7803F00F02CD
:103390001346DB0013449B0010337A681344043354
:1033A000FB60FB6801225A700FE0FB7803F00F020C
:1033B0001346DB0013449B0003F514737A6813442F
:1033C0000433FB60FB6800225A70FB6800229A708D
:1033D000FB7803F00F03DAB2FB681A707B6893F88E
:1033E0009434012B01D102230EE07B68012283F883
:1033F00094247B681B68F968184602F0BFFA7B6862
:10340000002283F89424002318461037BD4680BD5F
:1034100080B584B000AF78600B46FB7097F903303D
:10342000002B0CDAFB7803F00F021346DB00134489
:103430009B0010337A6813440433FB600CE0FB7884
:1034400003F00F021346DB0013449B0003F51473D3
:103450007A6813440433FB607B681B68F96818467C
:1034600002F0DEF80346FB72FB7A18461037BD46C1
:1034700080BD80B58AB002AF786039607B681B6818
:103480007B617B693B613A681346DB0013449B0018
:1034900010337A6813440433FB60FB685A69FB6895
:1034A0001B699A4201D901236BE0FB681A69FB682A
:1034B0005B69D31AFB61FB689B68FA699A4202D97F
:1034C000FB689B68FB61FB6903339B08BB612AE0D7
:1034D000FB681A69FB685B69D31AFB61FB689B6830
:1034E000FA699A4202D9FB689B68FB61FB69033366
:1034F0009B08BB61FB68D9683B68DAB2FB6998B28C
:103500007B689B7900930346786902F033F9FB6886
:10351000DA68FB691A44FB68DA60FB685A69FB6980
:103520001A44FB685A613B685A013B69134403F52E
:1035300010639B699BB2BA699A4209D8FB685A69C1
:10354000FB681B699A4203D2FB681B69002BBFD141
:10355000FB681A69FB685B699A4211D83B6803F003
:103560000F03012202FA03F3BB603B6903F500631A
:103570005A6BBB68DB43396901F5006113404B634B
:10358000002318462037BD4680BD000080B588B0B6
:1035900000AF786039607B681B68FB61FB69BB61C9
:1035A000FB693C3304331B687B613B685A01BB6990
:1035B000134403F530639B683B617B689B79012B67
:1035C0007BD13B6903F00803002B15D07B69614A6E
:1035D000934240F2B9803B6903F40043002B00F0B2
:1035E000B3803B685A01BB69134403F530631A4644
:1035F0004FF400439360A7E03B6903F02003002BE6
:1036000009D03B685A01BB69134403F530631A467D
:103610002023936098E03B6903F02803002B40F0DF
:1036200093807B694B4A93420FD93B6903F4004373
:10363000002B0AD03B685A01BB69134403F5306381
:103640001A464FF4004393607EE03A681346DB006D
:1036500013449B0003F514737A6813440433FB602E
:10366000FB681A6A3B685901BB690B4403F5306378
:103670001B69C3F31203D21AFB685A613B68002B23
:1036800014D1FB681B69002B09D17B6818687B6823
:1036900003F29C431A46012102F002FB06E0FB689C
:1036A000DA68FB685B691A44FB68DA603B68DBB286
:1036B0001946786804F0BCFD46E07B69264A9342CF
:1036C00024D13B6903F40043002B0AD03B685A0124
:1036D000BB69134403F530631A464FF4004393600B
:1036E00032E03B6903F02003002B08D03B685A010D
:1036F000BB69134403F530631A46202393603B688B
:10370000DBB21946786804F093FD1DE03B68002B9E
:1037100014D179683A681346DB0013449B000B44CC
:1037200003F519731B68002B08D17B6818687B6848
:1037300003F29C431A46002102F0B2FA3B68DBB266
:103740001946786804F074FD002318462037BD46FA
:1037500080BD00BF0A30544F0A31544F80B586B047
:1037600000AF786039607B681B687B617B693B6177
:103770007B693C3304331B68FB603B685A013B693F
:10378000134403F530639B68BB60FB68154A9342A2
:103790000ED9BB6803F40043002B09D03B685A01E3
:1037A0003B69134403F530631A464FF400439360BA
:1037B000786804F02BFDFB680A4A93420CD97B68B9
:1037C0009B79012B08D17B6818687B6803F29C43C6
:1037D0001A46012102F064FA002318461837BD4644
:1037E00080BD00BF0A30544F80B485B000AF786010
:1037F0000B46FB7013463B807B681B685B6ABB60B3
:10380000FB78002B07D13B8819047B681B68BA68DA
:103810000A439A6228E07B681B689B6A1B0CBA68A3
:103820001344BB600023FB730DE07B681A68FB7BCD
:1038300040339B0013445B681B0CBA681344BB60A5
:10384000FB7B0133FB73FA7BFB78013B9A42ECD3A1
:103850003B8818047B681968FB78013BBA6802430F
:1038600040339B000B445A60002318461437BD4672
:103870005DF8047B704780B483B000AF78600B467E
:103880007B807B681B687A885A62002318460C3755
:10389000BD465DF8047B704780B483B000AF7860AC
:1038A0000B46FB7000BF0C37BD465DF8047B7047CC
:1038B00080B586B000AF78607B68002B01D1012312
:1038C00067E27B681B6803F00103002B75D0884B0F
:1038D0009B6803F00C03042B0CD0854B9B6803F012
:1038E0000C03082B12D1824B5B6803F48003B3F501
:1038F000800F0BD17E4B1B6803F40033002B5BD091
:103900007B685B68002B57D1012342E27B685B68D0
:10391000B3F5803F06D1764B1B68754A43F480337C
:1039200013601DE07B685B68B3F5A02F0CD1704B72
:103930001B686F4A43F4802313606D4B1B686C4A0D
:1039400043F4803313600BE0694B1B68684A23F42F
:1039500080331360664B1B68654A23F48023136031
:103960007B685B68002B13D0FEF772FA386108E0C1
:10397000FEF76EFA02463B69D31A642B01D9032382
:1039800007E25B4B1B6803F40033002BF0D014E01C
:10399000FEF75EFA386108E0FEF75AFA02463B6924
:1039A000D31A642B01D90323F3E1514B1B6803F4B1
:1039B0000033002BF0D100E000BF7B681B6803F0F0
:1039C0000203002B63D04A4B9B6803F00C03002BCF
:1039D0000BD0474B9B6803F00C03082B1CD1444BC6
:1039E0005B6803F48003002B16D1414B1B6803F086
:1039F0000203002B05D07B68DB68012B01D001237B
:103A0000C7E13B4B1B6823F0F8027B681B69DB00B6
:103A1000374913430B603AE07B68DB68002B20D00A
:103A2000344B01221A60FEF713FA386108E0FEF702
:103A30000FFA02463B69D31A022B01D90323A8E1EE
:103A40002B4B1B6803F00203002BF0D0284B1B68A4
:103A500023F0F8027B681B69DB00254913430B60E8
:103A600015E0244B00221A60FEF7F2F9386108E0F5
:103A7000FEF7EEF902463B69D31A022B01D9032364
:103A800087E11B4B1B6803F00203002BF0D17B681E
:103A90001B6803F00803002B36D07B685B69002BA2
:103AA00016D0154B01221A60FEF7D2F9386108E0F2
:103AB000FEF7CEF902463B69D31A022B01D9032344
:103AC00067E10B4B5B6F03F00203002BF0D01BE0B0
:103AD000094B00221A60FEF7BBF938610EE0FEF7D1
:103AE000B7F902463B69D31A022B07D9032350E1E9
:103AF0000038024000004742800E4742884B5B6F0F
:103B000003F00203002BEAD17B681B6803F0040377
:103B1000002B00F097800023FB75814B1B6C03F09A
:103B20008053002B0FD10023BB607D4B1B6C7C4A64
:103B300043F0805313647A4B1B6C03F08053BB60DB
:103B4000BB680123FB75774B1B6803F48073002B64
:103B500018D1744B1B68734A43F480731360FEF7EB
:103B600077F9386108E0FEF773F902463B69D31A2A
:103B7000022B01D903230CE16A4B1B6803F4807309
:103B8000002BF0D07B689B68012B06D1644B1B6F28
:103B9000634A43F0010313671CE07B689B68052BB5
:103BA0000CD15F4B1B6F5E4A43F0040313675C4B01
:103BB0001B6F5B4A43F0010313670BE0584B1B6F0D
:103BC000574A23F001031367554B1B6F544A23F0E8
:103BD000040313677B689B68002B15D0FEF738F948
:103BE00038610AE0FEF734F902463B69D31A41F224
:103BF0008832934201D90323CBE0494B1B6F03F07A
:103C00000203002BEED014E0FEF722F938610AE03F
:103C1000FEF71EF902463B69D31A41F288329342FD
:103C200001D90323B5E03E4B1B6F03F00203002BC9
:103C3000EED1FB7D012B05D1394B1B6C384A23F0AB
:103C4000805313647B689B69002B00F0A180344B88
:103C50009B6803F00C03082B5CD07B689B69022BEC
:103C600041D1314B00221A60FEF7F2F8386108E0CA
:103C7000FEF7EEF802463B69D31A022B01D9032363
:103C800087E0274B1B6803F00073002BF0D17B68A3
:103C9000DA697B681B6A1A437B685B6A9B011A437B
:103CA0007B689B6A5B08013B1B041A437B68DB6AE9
:103CB0001B061B4913434B601B4B01221A60FEF786
:103CC000C7F8386108E0FEF7C3F802463B69D31A2B
:103CD000022B01D903235CE0114B1B6803F0007336
:103CE000002BF0D054E0104B00221A60FEF7B0F821
:103CF000386108E0FEF7ACF802463B69D31A022BA4
:103D000001D9032345E0064B1B6803F00073002B29
:103D1000F0D13DE07B689B69012B07D1012338E09E
:103D20000038024000700040600047421B4B5B6857
:103D3000FB607B689B69012B28D0FB6803F4800241
:103D40007B68DB699A4221D1FB6803F03F027B6804
:103D50001B6A9A421AD1FA6847F6C07313407A6810
:103D6000526A9201934211D1FB6803F440327B689E
:103D70009B6A5B08013B1B049A4207D1FB6803F076
:103D800070627B68DB6A1B069A4201D0012300E067
:103D9000002318461837BD4680BD00BF00380240DA
:103DA00080B584B000AF786039607B68002B01D1AA
:103DB0000123CCE0684B1B6803F007033A689A4282
:103DC0000CD9654B3A68D2B21A70634B1B6803F08A
:103DD00007033A689A4201D00123B8E07B681B6868
:103DE00003F00203002B20D07B681B6803F0040360
:103DF000002B05D0594B9B68584A43F4E05393601D
:103E00007B681B6803F00803002B05D0534B9B68AD
:103E1000524A43F460439360504B9B6823F0F00296
:103E20007B689B684D4913438B607B681B6803F07C
:103E30000103002B44D07B685B68012B07D1474B03
:103E40001B6803F40033002B19D101237FE07B684A
:103E50005B68022B03D07B685B68032B07D13F4B69
:103E60001B6803F00073002B09D101236FE03B4B6B
:103E70001B6803F00203002B01D1012367E0374BDD
:103E80009B6823F003027B685B68344913438B60B3
:103E9000FDF7DEFFF8600AE0FDF7DAFF0246FB6897
:103EA000D31A41F28832934201D903234FE02B4BBE
:103EB0009B6803F00C027B685B689B009A42EBD125
:103EC000254B1B6803F007033A689A420CD2224B39
:103ED0003A68D2B21A70204B1B6803F007033A68A5
:103EE0009A4201D0012332E07B681B6803F004038F
:103EF000002B08D0194B9B6823F4E0527B68DB68E9
:103F0000164913438B607B681B6803F00803002B82
:103F100009D0124B9B6823F460427B681B69DB006D
:103F20000E4913438B6000F021F802460B4B9B684F
:103F30001B0903F00F030A49CB5C22FA03F3094A79
:103F40001360094B1B681846FDF73EFF0023184617
:103F50001037BD4680BD00BF003C02400038024023
:103F600054D1000800000020040000202DE9B04FCB
:103F700090B000AF00237B630023FB6300233B630F
:103F80000023BB63594B9B6803F00C03082B0DD037
:103F9000082B00F2A180002B02D0042B03D09BE061
:103FA000534BBB639BE0534BBB6398E04F4B5B6849
:103FB00003F03F037B634D4B5B6803F48003002BEE
:103FC00028D04A4B5B689B0900223B627A623B6ABD
:103FD000C3F308000021474B03FB01F2002300FB61
:103FE00003F31344434AA0FB0212FA620A46BA6280
:103FF000FA6A1344FB627B6B0022BB61FA61D7E96A
:104000000623D7E90A01FCF747FE02460B46134692
:10401000FB6353E0354B5B689B0900223B617A618F
:104020003B69C3F3080A4FF0000B52465B464FF062
:1040300000004FF00001590141EAD26150010246EF
:104040000B46B2EB0A0863EB0B094FF000024FF08E
:1040500000034FEA891343EA98634FEA8812B2EBF0
:10406000080463EB09054FF000024FF00003EB007A
:1040700043EA5473E20014461D4614EB0A033B6006
:1040800045EB0B037B604FF000024FF00003D7E9D4
:10409000004529468B02214643EA915321468A0274
:1040A000104619467B6B0022BB60FA60D7E90223F9
:1040B000FCF7F2FD02460B461346FB630B4B5B68B5
:1040C0001B0C03F0030301335B003B63FA6B3B6B98
:1040D000B2FBF3F3BB6302E0054BBB6300BFBB6BFA
:1040E00018464037BD46BDE8B08F00BF00380240DB
:1040F0000024F40040787D0180B400AF034B1B68BE
:104100001846BD465DF8047B704700BF00000020E4
:1041100080B582B000AF78607B68002B01D10123AD
:104120007BE07B685B6A002B08D17B685B68B3F53A
:10413000827F09D07B680022DA6105E07B6800227B
:104140001A617B6800225A617B6800229A627B6850
:1041500093F85130DBB2002B06D17B68002283F844
:1041600050207868FDF770FC7B68022283F85120AC
:104170007B681B681A687B681B6822F040021A6023
:104180007B685B6803F482727B689B6803F404437A
:104190001A437B68DB6803F400631A437B681B697E
:1041A00003F002031A437B685B6903F001031A43BF
:1041B0007B689B6903F400731A437B68DB6903F037
:1041C00038031A437B681B6A03F0800342EA030149
:1041D0007B689B6A03F400527B681B680A431A6081
:1041E0007B689B691B0C03F004017B685B6A03F02E
:1041F00010027B681B680A435A607B681B68DA6997
:104200007B681B6822F40062DA617B6800225A65D1
:104210007B68012283F85120002318460837BD46E9
:1042200080BD80B58CB000AFF860B9607A607B80EB
:104230000123FB62002387F82B30FB6893F8503092
:10424000012B01D1022398E1FB68012283F8502061
:10425000FDF7FEFD7862FB6893F8513087F8233054
:10426000FB685B68FB617B887B8397F82330012BBD
:104270000FD0FB69B3F5827F07D1FB689B68002BE9
:1042800003D197F82330042B03D0022387F82B3077
:104290006DE1BB68002B05D07B68002B02D07B88CA
:1042A000002B03D1012387F82B3060E1FB6893F8E2
:1042B0005130DBB2042B03D0FB68052283F8512078
:1042C000FB6800225A65FB687A689A63FB687A8803
:1042D000DA87FB687A889A87FB68BA681A63FB6892
:1042E0007A88DA86FB687A889A86FB6800221A64E4
:1042F000FB6800225A64FB681B681B6803F04003DC
:10430000402B07D0FB681B681A68FB681B6842F0EB
:1043100040021A60FB68DB68B3F5006F7CD1FB6874
:104320005B68002B02D07B8B012B6AD1FB681B6B77
:104330001A88FB681B68DA60FB681B6B9A1CFB68B9
:104340001A63FB68DB8E9BB2013B9AB2FB68DA868C
:1043500057E0FB681B689B6803F00203022B1BD12C
:10436000FB68DB8E9BB2002B16D0FB6A012B13D1AE
:10437000FB681B6B1A88FB681B68DA60FB681B6BA9
:104380009A1CFB681A63FB68DB8E9BB2013B9AB2F6
:10439000FB68DA860023FB62FB681B689B6803F0FE
:1043A0000103012B19D1FB68DB8F9BB2002B14D0CA
:1043B000FB681B68DA68FB689B6B92B21A80FB682B
:1043C0009B6B9A1CFB689A63FB68DB8F9BB2013B7B
:1043D0009AB2FB68DA870123FB62FDF739FD0246DA
:1043E0007B6AD31ABA6B9A420BD8BB6BB3F1FF3F0F
:1043F00007D0032387F82B30FB68012283F8512074
:10440000B5E0FB68DB8E9BB2002BA2D1FB68DB8F93
:104410009BB2002B9DD180E0FB685B68002B02D033
:104420007B8B012B6FD1FB681A6BFB681B680C330D
:1044300012781A70FB681B6B5A1CFB681A63FB68C6
:10444000DB8E9BB2013B9AB2FB68DA865BE0FB68CD
:104450001B689B6803F00203022B1CD1FB68DB8EF8
:104460009BB2002B17D0FB6A012B14D1FB681A6B8F
:10447000FB681B680C3312781A70FB681B6B5A1CA4
:10448000FB681A63FB68DB8E9BB2013B9AB2FB6848
:10449000DA860023FB62FB681B689B6803F001035C
:1044A000012B19D1FB68DB8F9BB2002B14D0FB686A
:1044B0001B68DA68FB689B6BD2B21A70FB689B6B57
:1044C0005A1CFB689A63FB68DB8F9BB2013B9AB274
:1044D000FB68DA870123FB62FDF7BAFC02467B6AC0
:1044E000D31ABA6B9A4203D8BB6BB3F1FF3F02D128
:1044F000BB6B002B07D1032387F82B30FB6801220D
:1045000083F8512033E0FB68DB8E9BB2002B9ED1F9
:10451000FB68DB8F9BB2002B99D17A6AB96BF86884
:1045200000F0B8F80346002B06D0012387F82B30A3
:10453000FB6820225A651AE0FB689B68002B0AD1B1
:1045400000237B61FB681B68DB687B61FB681B6881
:104550009B687B617B69FB685B6D002B03D001234B
:1045600087F82B3003E0FB68012283F85120FB68B9
:10457000002283F8502097F82B3018463037BD467C
:1045800080BD000080B588B000AFF860B9603B60C6
:104590001346FB71FDF75CFC0246BB6A9B1A3A6846
:1045A0001344FB61FDF754FCB861394B1B685B0198
:1045B0001B0DFA6902FB03F37B6154E03B68B3F126
:1045C000FF3F50D0FDF744FC0246BB69D31AFA699D
:1045D0009A4202D9FB69002B3DD1FB681B685A68DF
:1045E000FB681B6822F0E0025A60FB685B68B3F569
:1045F000827F11D1FB689B68B3F5004F04D0FB6844
:104600009B68B3F5806F07D1FB681B681A68FB686D
:104610001B6822F040021A60FB689B6AB3F5005FDA
:104620000FD1FB681B681A68FB681B6822F40052F4
:104630001A60FB681B681A68FB681B6842F400522A
:104640001A60FB68012283F85120FB68002283F87E
:104650005020032317E07B69002B01D10023FB616D
:104660007B69013B7B61FB681B689A68BB681340F0
:10467000BA689A420CBF01230023DBB21A46FB79C9
:104680009A429BD1002318462037BD4680BD00BF0B
:104690000000002080B588B002AFF860B9607A6091
:1046A0007B680093BB6801220221F868FFF76AFF6C
:1046B0000346002B07D0FB685B6D43F02002FB68CC
:1046C0005A65032332E01B4B1B681B4AA2FB0323E2
:1046D0005B0D4FF47A7202FB03F37B61FB685B684E
:1046E000B3F5827F12D17B680093BB6800228021E2
:1046F000F868FFF747FF0346002B16D0FB685B6D99
:1047000043F02002FB685A6503230FE07B69002B0E
:104710000AD07B69013B7B61FB681B689B6803F0E7
:104720008003802BF2D000E000BF0023184618372A
:10473000BD4680BD00000020819F5E1684B080B51C
:1047400084B000AF786007F11C0080E80E0097F895
:104750002130012B23D17B689B6B23F480327B6853
:104760009A637B68DB6823F4840323F040037A6850
:10477000D3607B68DB6823F440127B68DA6097F8CB
:104780002830012B05D17B68DB6843F480127B68FD
:10479000DA60786801F0E2FA0346FB731BE07B689D
:1047A000DB6843F040027B68DA60786801F0D6FA93
:1047B0000346FB7397F82530002B06D17B689B6B73
:1047C00043F480327B689A6305E07B689B6B23F43B
:1047D00080327B689A63BB7F012B0BD17B689B681F
:1047E00043F006027B689A607B689B6843F0200276
:1047F0007B689A60FB7B18461037BD46BDE8804059
:1048000004B0704780B487B000AFF860B960134659
:10481000FB71FB79022B65D1BB68414A934206D9F3
:10482000BB68404A934202D20F237B6162E0BB68BF
:104830003C4A934206D3BB683B4A934202D20E23C2
:104840007B6157E0BB68384A934206D3BB68374A5E
:10485000934202D20D237B614CE0BB68334A934202
:1048600006D3BB68324A934202D80C237B6141E0F5
:10487000BB682F4A934206D9BB682E4A934202D89E
:104880000B237B6136E0BB682A4A934206D9BB689A
:10489000294A934202D80A237B612BE0BB68264A4F
:1048A000934206D9BB68254A934202D209237B6111
:1048B00020E0BB68214A934206D3BB68204A93425A
:1048C00002D808237B6115E0BB681D4A934206D9D4
:1048D000BB681C4A934202D207237B610AE006238D
:1048E0007B6107E0FB79002B02D109237B6101E0AA
:1048F00009237B61FB68DB6823F47052FB68DA6094
:10490000FB68DA687B699B0203F470531A43FB6807
:10491000DA60002318461C37BD465DF8047B7047FB
:10492000BFACD800C0E1E4000024F40080730601AD
:104930009F491A01FF2C31013FA44C0100366E0142
:104940001FABA6010048E80180B483B000AF7860D7
:104950007B689B6843F001027B689A6000231846DD
:104960000C37BD465DF8047B704780B483B000AF60
:1049700078607B689B6823F001027B689A60002363
:1049800018460C37BD465DF8047B704780B584B08F
:1049900000AF78600B46FB700023FB607B68DB6830
:1049A00023F0C0427B68DA60FB78012B15D17B686D
:1049B000DB6843F000527B68DA600A20FDF754FAA6
:1049C000FB680A33FB60786801F039F90346012B74
:1049D0001ED0FB68C72BF0D91AE0FB78002B15D14D
:1049E0007B68DB6843F080427B68DA600A20FDF771
:1049F0003BFAFB680A33FB60786801F020F9034654
:104A0000002B05D0FB68C72BF0D901E0012305E09E
:104A1000FB68C82B01D1012300E0002318461037A2
:104A2000BD4680BD84B080B586B000AF786007F128
:104A3000240080E80E000023FB757B68FB600023E8
:104A40003B6109E07A683B6940339B0013440022D4
:104A50005A603B6901333B613B690E2BF2D997F8F1
:104A60002E30002B1CD1FB6803F500635B68FA68ED
:104A700002F5006243F0020353607B689B6B43F4D2
:104A800000127B689A637B689B6B23F400227B682F
:104A90009A637B689B6B23F480227B689A630BE0AC
:104AA0007B689B6B23F400127B689A637B689B6B2B
:104AB00043F400227B689A63FB6803F560631A463F
:104AC0000023136097F82930012B0DD197F8273078
:104AD000002B04D10021786800F068F908E001217A
:104AE000786800F063F903E00321786800F05EF96C
:104AF0001021786800F0FAF80346002B01D001235A
:104B0000FB75786800F024F90346002B01D00123DF
:104B1000FB75FB6803F500631A4600231361FB680D
:104B200003F500631A4600235361FB6803F5006335
:104B30001A460023D36100233B6143E03B695A01DD
:104B4000FB68134403F510631B6803F00043B3F1E3
:104B5000004F18D13B69002B0AD13B695A01FB6811
:104B6000134403F510631A464FF00063136013E01B
:104B70003B695A01FB68134403F510631A464FF072
:104B80009043136008E03B695A01FB68134403F546
:104B900010631A46002313603B695A01FB681344F3
:104BA00003F510631A46002313613B695A01FB6841
:104BB000134403F510631A464FF67F3393603B6945
:104BC00001333B6197F824301A463B699342B5D3D1
:104BD00000233B6143E03B695A01FB68134403F542
:104BE00030631B6803F00043B3F1004F18D13B69F9
:104BF000002B0AD13B695A01FB68134403F530636B
:104C00001A464FF00063136013E03B695A01FB68DA
:104C1000134403F530631A464FF09043136008E0E5
:104C20003B695A01FB68134403F530631A460023BD
:104C300013603B695A01FB68134403F530631A465D
:104C4000002313613B695A01FB68134403F5306389
:104C50001A464FF67F3393603B6901333B6197F807
:104C600024301A463B699342B5D3FB6803F50063D1
:104C70001B69FA6802F5006223F4807313617B6894
:104C800000229A617B686FF080425A6197F8263063
:104C9000002B05D17B689B6943F010027B689A6109
:104CA0007B689A69104B13437A68936197F82A30AE
:104CB000002B05D07B689B6943F008027B689A61F2
:104CC00097F82E30012B07D17B689B6943F0804316
:104CD00043F004037A689361FB7D18461837BD469C
:104CE000BDE8804004B0704700383C8080B485B097
:104CF00000AF786039600023FB60FB680133FB6024
:104D0000FB68B3F1706F01D903231BE07B681B695B
:104D1000002BF2DA0023FB603B689B0143F020028A
:104D20007B681A61FB680133FB60FB68B3F1706F4D
:104D300001D9032306E07B681B6903F02003202BC5
:104D4000F0D0002318461437BD465DF8047B704749
:104D500080B485B000AF78600023FB60FB6801334E
:104D6000FB60FB68B3F1706F01D9032318E07B6827
:104D70001B69002BF2DA0023FB607B6810221A61AA
:104D8000FB680133FB60FB68B3F1706F01D903234B
:104D900006E07B681B6903F01003102BF0D00023A2
:104DA00018461437BD465DF8047B704780B485B063
:104DB00000AF78600B46FB707B68FB60FB6803F517
:104DC00000631A68FB78F96801F5006113430B6012
:104DD000002318461437BD465DF8047B704780B445
:104DE00087B000AF78607B683B613B6903F5006387
:104DF0009B6803F00603FB60FB68002B02D10023D5
:104E0000FB750AE0FB68022B02D0FB68062B02D17F
:104E10000223FB7501E00F23FB75FB7D18461C3751
:104E2000BD465DF8047B704780B485B000AF786004
:104E300039607B68FB603B681B78BB603B685B78D4
:104E4000012B3AD1FB6803F50063DA693B681B78F4
:104E500003F00F03012101FA03F39BB2F96801F596
:104E600000611343CB61BB685A01FB68134403F52F
:104E700010631B6803F40043002B55D1BB685A0133
:104E8000FB68134403F510631A683B689B68C3F31F
:104E90000A013B681B799B041943BB689B050B43C4
:104EA0001343BA685101FA680A4402F5106243F0EC
:104EB000805343F40043136036E0FB6803F500635E
:104EC000DA693B681B7803F00F03012101FA03F351
:104ED0001B04F96801F500611343CB61BB685A01FB
:104EE000FB68134403F530631B6803F40043002B95
:104EF0001AD1BB685A01FB68134403F530631A6882
:104F00003B689B68C3F30A013B681B799B040B4316
:104F10001343BA685101FA680A4402F5306243F05B
:104F2000805343F400431360002318461437BD46F2
:104F30005DF8047B7047000080B485B000AF7860F6
:104F400039607B68FB603B681B78BB603B685B78C3
:104F5000012B61D1BB685A01FB68134403F5106350
:104F60001B6803F00043B3F1004F1FD1BB685A0127
:104F7000FB68134403F510631B68BA685101FA68B3
:104F80000A4402F5106243F000631360BB685A01E3
:104F9000FB68134403F510631B68BA685101FA6893
:104FA0000A4402F5106243F080431360FB6803F586
:104FB0000063DA6B3B681B7803F00F03012101FAF1
:104FC00003F39BB2DB43F96801F500611340CB6347
:104FD000FB6803F50063DA693B681B7803F00F0395
:104FE000012101FA03F39BB2DB43F96801F500618B
:104FF0001340CB61BB685A01FB68134403F510638F
:105000001A68BB685901FB680B4403F51063194625
:10501000354B13400B6060E0BB685A01FB681344DA
:1050200003F530631B6803F00043B3F1004F1FD159
:10503000BB685A01FB68134403F530631B68BA6808
:105040005101FA680A4402F5306243F000631360CC
:10505000BB685A01FB68134403F530631B68BA68E8
:105060005101FA680A4402F5306243F0804313604C
:10507000FB6803F50063DA6B3B681B7803F00F03F2
:10508000012101FA03F31B04DB43F96801F5006118
:105090001340CB63FB6803F50063DA693B681B7858
:1050A00003F00F03012101FA03F31B04DB43F9684A
:1050B00001F500611340CB61BB685A01FB681344E2
:1050C00003F530631A68BB685901FB680B4403F5AC
:1050D00030631946054B13400B6000231846143704
:1050E000BD465DF8047B7047007833EC0078F3EF41
:1050F00080B58AB002AFF860B9601346FB71FB68F7
:10510000FB61BB681B78BB61BB685B78012B40F01F
:105110007A81BB681B69002B32D1BB695A01FB69DC
:10512000134403F510631B69BA695101FA690A4413
:1051300002F5106223F0FF5323F4C0131361BB691F
:105140005A01FB69134403F510631B69BA695101E5
:10515000FA690A4402F5106243F400231361BB6943
:105160005A01FB69134403F510631B69BA695101C5
:10517000FA690A4402F51062DB0CDB04136192E069
:10518000BB695A01FB69134403F510631B69BA69D3
:105190005101FA690A4402F51062DB0CDB04136169
:1051A000BB695A01FB69134403F510631B69BA69B3
:1051B0005101FA690A4402F5106223F0FF5323F407
:1051C000C0131361BB69002B1AD1BB681A69BB6895
:1051D0009B689A4203D9BB689A68BB681A61BB692D
:1051E0005A01FB69134403F510631B69BA69510145
:1051F000FA690A4402F5106243F4002313611BE0CC
:10520000BB695A01FB69134403F510631A69BB6853
:105210001969BB689B680B44591EBB689B68B1FB4E
:10522000F3F3D904A24B0B40B9694801F969014471
:1052300001F5106113430B61BB695A01FB6913440B
:1052400003F510631A69BB681B69C3F31203B969DC
:105250004801F969014401F5106113430B61BB6812
:105260001B79012B1FD1BB695A01FB69134403F55C
:1052700010631B69BA695101FA690A4402F51062A8
:1052800023F0C0431361BB695A01FB69134403F562
:1052900010631B69BA695101FA690A4402F5106288
:1052A00043F000531361FB79012B4BD1BB68DB69E1
:1052B000002B09D0BB695A01FB69134403F5106345
:1052C0001A46BB68DB695361BB681B79012B28D187
:1052D000FB6903F500639B6803F48073002B10D116
:1052E000BB695A01FB69134403F510631B68BA6973
:1052F0005101FA690A4402F5106243F00053136049
:105300000FE0BB695A01FB69134403F510631B6886
:10531000BA695101FA690A4402F5106243F08053F8
:105320001360BB695A01FB69134403F510631B68E2
:10533000BA695101FA690A4402F5106243F0044364
:10534000136065E1BB695A01FB69134403F51063FF
:105350001B68BA695101FA690A4402F5106243F008
:1053600004431360BB681B79012B15D0BB681B6914
:10537000002B00F04D81FB6903F500635A6BBB689D
:105380001B7803F00F03012101FA03F3F96901F51A
:10539000006113434B633BE1FB6903F500639B68CA
:1053A00003F48073002B10D1BB695A01FB691344CD
:1053B00003F510631B68BA695101FA690A4402F5E2
:1053C000106243F0005313600FE0BB695A01FB69A0
:1053D000134403F510631B68BA695101FA690A4462
:1053E00002F5106243F080531360BB68D968BB6854
:1053F0001A78BB681B6998B2FB7900930346F8687A
:1054000000F0B8F904E1BB695A01FB69134403F5E4
:1054100030631B69BA695101FA690A4402F53062C6
:10542000DB0CDB041361BB695A01FB69134403F510
:1054300030631B69BA695101FA690A4402F53062A6
:1054400023F0FF5323F4C0131361BB69002B31D148
:10545000BB681B69002B03D0BB689A68BB681A61E4
:10546000BB689A68BB681A62BB695A01FB6913443E
:1054700003F530631A69BB681B6AC3F31203B96989
:105480004801F969014401F5306113430B61BB69BF
:105490005A01FB69134403F530631B69BA69510172
:1054A000FA690A4402F5306243F40023136161E0B3
:1054B0000000F81FBB681B69002B23D1BB695A0190
:1054C000FB69134403F530631A69BB689B68C3F337
:1054D0001203B9694801F969014401F530611343C8
:1054E0000B61BB695A01FB69134403F530631B6907
:1054F000BA695101FA690A4402F5306243F40023A3
:10550000136137E0BB681A69BB689B6813445A1E75
:10551000BB689B68B2FBF3F3FB82BB689B68FA8AAB
:1055200003FB02F2BB681A62BB695A01FB691344B0
:1055300003F530631A69FB8AD904384B0B40B9690B
:105540004801F969014401F5306113430B61BB69FE
:105550005A01FB69134403F530631A69BB681B6A7F
:10556000C3F31203B9694801F969014401F53061D7
:1055700013430B61FB79012B0DD1BB68DB68002B5A
:1055800009D0BB68D968BB695A01FB69134403F5AC
:1055900030630A465A61BB681B79012B28D1FB692D
:1055A00003F500639B6803F48073002B10D1BB6983
:1055B0005A01FB69134403F530631B68BA69510152
:1055C000FA690A4402F5306243F0005313600FE0B9
:1055D000BB695A01FB69134403F530631B68BA6960
:1055E0005101FA690A4402F5306243F080531360B6
:1055F000BB695A01FB69134403F530631B68BA6940
:105600005101FA690A4402F5306243F00443136021
:10561000002318462037BD4680BD00BF0000F81F9C
:1056200080B487B000AF786039600023FB6000234E
:10563000FB757B683B613B685B78012B4AD13B681B
:105640001B785A013B69134403F510631B6803F090
:105650000043B3F1004F40F086803B681B785A014D
:105660003B69134403F510631B683A6812785101D3
:105670003A690A4402F5106243F0006313603B6824
:105680001B785A013B69134403F510631B683A68A1
:10569000127851013A690A4402F5106243F08043DE
:1056A0001360FB680133FB60FB6842F210729342A7
:1056B00002D90123FB7556E03B681B785A013B6910
:1056C000134403F510631B6803F00043B3F1004F6C
:1056D000E7D048E03B681B785A013B69134403F567
:1056E00030631B6803F00043B3F1004F3BD13B68CC
:1056F0001B785A013B69134403F530631B683A6811
:10570000127851013A690A4402F5306243F00063AD
:1057100013603B681B785A013B69134403F53063FF
:105720001B683A68127851013A690A4402F53062FE
:1057300043F080431360FB680133FB60FB6842F277
:105740001072934202D90123FB750CE03B681B7871
:105750005A013B69134403F530631B6803F00043AF
:10576000B3F1004FE7D0FB7D18461C37BD465DF80E
:10577000047B704780B489B000AFF860B96011460F
:105780001A460B46FB711346BB80FB687B61BB6806
:10579000FB6197F82830002B23D1BB8803339B088B
:1057A0003B610023BB6118E0FB791A037B6913445A
:1057B00003F580531A46FB691B681360FB690133CC
:1057C000FB61FB690133FB61FB690133FB61FB6931
:1057D0000133FB61BB690133BB61BA693B699A4222
:1057E000E2D3002318462437BD465DF8047B70479A
:1057F00080B48BB000AFF860B9601346FB80FB68E3
:10580000BB61BB687B62FB889B089BB27B61FB88AA
:1058100003F00303FB8300233B6214E0BB6903F541
:1058200080531A687B6A1A607B6A01337B627B6AE9
:1058300001337B627B6A01337B627B6A01337B626B
:105840003B6A01333B623A6A7B699A42E6D3FB8B3F
:10585000002B1ED000233B62BB6903F580531A4620
:1058600007F1100312681A603A693B6ADBB2DB0089
:1058700022FA03F3DAB27B6A1A703B6A01333B62A5
:105880007B6A01337B62FB8B013BFB83FB8B002B31
:10589000EAD17B6A18462C37BD465DF8047B704719
:1058A00080B485B000AF786039607B68FB603B688E
:1058B0001B78BB603B685B78012B2CD1BB685A011D
:1058C000FB68134403F510631B68002B12DBBB68F5
:1058D000002B0FD0BB685A01FB68134403F510631B
:1058E0001B68BA685101FA680A4402F5106223F095
:1058F00080431360BB685A01FB68134403F51063CF
:105900001B68BA685101FA680A4402F5106243F450
:10591000001313602BE0BB685A01FB68134403F5C6
:1059200030631B68002B12DBBB68002B0FD0BB68F9
:105930005A01FB68134403F530631B68BA685101D0
:10594000FA680A4402F5306223F080431360BB68B2
:105950005A01FB68134403F530631B68BA685101B0
:10596000FA680A4402F5306243F40013136000231E
:1059700018461437BD465DF8047B704780B485B087
:1059800000AF786039607B68FB603B681B78BB6068
:105990003B685B78012B28D1BB685A01FB68134434
:1059A00003F510631B68BA685101FA680A4402F5EE
:1059B000106223F4001313603B681B79032B03D0A0
:1059C0003B681B79022B38D1BB685A01FB68134432
:1059D00003F510631B68BA685101FA680A4402F5BE
:1059E000106243F08053136027E0BB685A01FB68E4
:1059F000134403F530631B68BA685101FA680A441E
:105A000002F5306223F4001313603B681B79032B0B
:105A100003D03B681B79022B0FD1BB685A01FB688E
:105A2000134403F530631B68BA685101FA680A44ED
:105A300002F5306243F08053136000231846143798
:105A4000BD465DF8047B704780B485B000AF7860D8
:105A50000B46FB707B68FB60FB6803F500631B680B
:105A6000FA6802F5006223F4FE631360FB6803F535
:105A700000631A68FB781B0103F4FE63F96801F503
:105A8000006113430B60002318461437BD465DF8D0
:105A9000047B704780B485B000AF78607B68FB60A2
:105AA000FB6803F560631B68FA6802F5606223F027
:105AB00003031360FB6803F500635B68FA6802F593
:105AC000006223F002035360002318461437BD46DA
:105AD0005DF8047B704780B485B000AF78607B6868
