:020000040800F2
:1000000000000220251E00080D1C0008131C00081B
:10001000191C00081F1C0008251C00080000000017
:100020000000000000000000000000002B1C000881
:10003000391C000800000000471C0008551C00087F
:10004000751E0008751E0008751E0008751E000844
:10005000751E0008751E0008751E0008751E000834
:10006000751E0008751E0008751E0008751E000824
:10007000751E0008751E0008751E0008751E000814
:10008000751E0008751E0008751E0008000000009F
:10009000000000000000000000000000751E0008C5
:1000A000751E0008751E0008751E0008751E0008E4
:1000B000751E0008751E0008751E0008751E0008D4
:1000C000751E0008751E0008751E0008751E0008C4
:1000D000751E0008611C0008751E00080000000065
:1000E000751E0008751E0008751E0008000000003F
:1000F000000000000000000000000000751E000865
:1001000000000000751E0008751E0008751E00081E
:1001100000000000000000000000000000000000DF
:10012000751E0008751E0008751E0008751E000863
:10013000751E000800000000000000000000000024
:10014000000000000000000000000000751E000814
:10015000751E0008751E0008751E0008751E000833
:10016000751E0008751E0008000000000000000059
:10017000000000000000000000000000000000007F
:1001800000000000751E00080000000000000000D4
:08019000751E0008751E000831
:1001A00010B5054C237833B9044B13B10448AFF3B1
:1001B00000800123237010BDD40100200000000046
:1001C0006093000808B5034B1BB103490348AFF324
:1001D000008008BD00000000D801002060930008E6
:1001E00001F0FF01102A2BDB10F0070F08D010F8E8
:1001F000013B013A8B422DD010F0070F42B3F6D1EC
:10020000F0B441EA012141EA014122F007047FF004
:1002100000070023F0E80256083C85EA010586EA5B
:10022000010685FA47F5A3FA87F586FA47F6A5FA97
:1002300087F68EB9EED1F0BC01F0FF0102F00702A3
:1002400032B110F8013B013A83EA010313B1F8D14E
:100250000020704701387047002D06BF354603382F
:10026000073815F0010F07D1013015F4807F02BF68
:10027000013015F4C03F0130F0BC0138704700BFB9
:10028000034613F8012B002AFBD1181A01387047D6
:1002900081F0004102E000BF83F0004330B54FEA37
:1002A00041044FEA430594EA050F08BF90EA020FA4
:1002B0001FBF54EA000C55EA020C7FEA645C7FEA37
:1002C000655C00F0E2804FEA5454D4EB5555B8BF5A
:1002D0006D420CDD2C4480EA020281EA030382EACB
:1002E000000083EA010180EA020281EA0303362D5D
:1002F00088BF30BD11F0004F4FEA01314FF4801C30
:100300004CEA113102D0404261EB410113F0004F41
:100310004FEA03334CEA133302D0524263EB4303F8
:1003200094EA050F00F0A780A4F10104D5F1200E96
:100330000DDB02FA0EFC22FA05F2801841F10001F1
:1003400003FA0EF2801843FA05F359410EE0A5F1C5
:1003500020050EF1200E012A03FA0EFC28BF4CF0F6
:10036000020C43FA05F3C01851EBE37101F00045AC
:1003700007D54FF0000EDCF1000C7EEB00006EEBB9
:100380000101B1F5801F1BD3B1F5001F0CD3490843
:100390005FEA30004FEA3C0C04F101044FEA44529A
:1003A00012F5800F80F09A80BCF1004F08BF5FEA21
:1003B000500C50F1000041EB045141EA050130BD01
:1003C0005FEA4C0C404141EB0101013C28BFB1F513
:1003D000801FE9D291F0000F04BF01460020B1FA5E
:1003E00081F308BF2033A3F10B03B3F120020CDA31
:1003F0000C3208DD02F1140CC2F10C0201FA0CF00F
:1004000021FA02F10CE002F11402D8BFC2F1200C73
:1004100001FA02F120FA0CFCDCBF41EA0C01904029
:10042000E41AA2BF01EB0451294330BD6FEA040472
:100430001F3C1CDA0C340EDC04F11404C4F120025D
:1004400020FA04F001FA02F340EA030021FA04F36F
:1004500045EA030130BDC4F10C04C4F1200220FAC6
:1004600002F001FA04F340EA0300294630BD21FA04
:1004700004F0294630BD94F0000F83F4801306BFCA
:1004800081F480110134013D4EE77FEA645C18BFBE
:100490007FEA655C29D094EA050F08BF90EA020F55
:1004A00005D054EA000C04BF1946104630BD91EA4D
:1004B000030F1EBF0021002030BD5FEA545C05D150
:1004C0004000494128BF41F0004130BD14F580048F
:1004D0003CBF01F5801130BD01F0004545F0FE4103
:1004E00041F470014FF0000030BD7FEA645C1ABF38
:1004F000194610467FEA655C1CBF0B46024650EA6F
:10050000013406BF52EA033591EA030F41F400219A
:1005100030BD00BF90F0000F04BF0021704730B520
:100520004FF4806404F132044FF000054FF00001F5
:1005300050E700BF90F0000F04BF0021704730B5B6
:100540004FF4806404F1320410F0004548BF40428B
:100550004FF000013EE700BF42004FEAE2014FEAE0
:1005600031014FEA02701FBF12F07F4393F07F4FBB
:1005700081F06051704732F07F4208BF704793F0BE
:100580007F4F04BF41F40021704730B54FF46074D1
:1005900001F0004521F000411CE700BF50EA0102D4
:1005A00008BF704730B54FF000050AE050EA01027D
:1005B00008BF704730B511F0004502D5404261EBED
:1005C00041014FF4806404F132045FEA915C3FF42E
:1005D000D8AE4FF003025FEADC0C18BF03325FEACB
:1005E000DC0C18BF033202EBDC02C2F1200300FA7C
:1005F00003FC20FA02F001FA03FE40EA0E0021FAA1
:1006000002F11444BDE600BF70B54FF0FF0C4CF48E
:10061000E06C1CEA11541DBF1CEA135594EA0C0F40
:1006200095EA0C0F00F0DEF82C4481EA030621EA7B
:100630004C5123EA4C5350EA013518BF52EA0335B6
:1006400041F4801143F4801338D0A0FB02CE4FF068
:100650000005E1FB02E506F00042E0FB03E54FF098
:100660000006E1FB03569CF0000F18BF4EF0010E90
:10067000A4F1FF04B6F5007F64F5407404D25FEA8C
:100680004E0E6D4146EB060642EAC62141EA55513F
:100690004FEAC52040EA5E504FEACE2EB4F1FD0C81
:1006A00088BFBCF5E06F1ED8BEF1004F08BF5FEAFF
:1006B000500E50F1000041EB045170BD06F00046B1
:1006C00046EA010140EA020081EA0301B4EB5C045E
:1006D000C2BFD4EB0C0541EA045170BD41F4801156
:1006E0004FF0000E013C00F3AB8014F1360FDEBF7B
:1006F000002001F0004170BDC4F10004203C35DA57
:100700000C341BDC04F11404C4F1200500FA05F3D9
:1007100020FA04F001FA05F240EA020001F000427A
:1007200021F0004110EBD37021FA04F642EB0601F0
:100730005EEA430E08BF20EAD37070BDC4F10C041A
:10074000C4F1200500FA04F320FA05F001FA04F2DE
:1007500040EA020001F0004110EBD37041F10001CA
:100760005EEA430E08BF20EAD37070BDC4F12005D5
:1007700000FA05F24EEA020E20FA04F301FA05F23D
:1007800043EA020321FA04F001F0004121FA04F2E5
:1007900020EA020000EBD3705EEA430E08BF20EAB5
:1007A000D37070BD94F0000F0FD101F000464000EF
:1007B00041EB010111F4801F08BF013CF7D041EA71
:1007C000060195F0000F18BF704703F00046520075
:1007D00043EB030313F4801F08BF013DF7D043EA46
:1007E0000603704794EA0C0F0CEA135518BF95EAFC
:1007F0000C0F0CD050EA410618BF52EA4306D1D183
:1008000081EA030101F000414FF0000070BD50EAA1
:10081000410606BF1046194652EA430619D094EA2B
:100820000C0F02D150EA013613D195EA0C0F05D115
:1008300052EA03361CBF104619460AD181EA030169
:1008400001F0004141F0FE4141F470014FF0000021
:1008500070BD41F0FE4141F4780170BD70B54FF0BC
:10086000FF0C4CF4E06C1CEA11541DBF1CEA13553C
:1008700094EA0C0F95EA0C0F00F0A7F8A4EB05041E
:1008800081EA030E52EA03354FEA013100F0888015
:100890004FEA03334FF0805545EA131343EA1263DE
:1008A0004FEA022245EA111545EA10654FEA002693
:1008B0000EF000419D4208BF964244F1FD0404F54C
:1008C000407402D25B084FEA3202B61A65EB0305A8
:1008D0005B084FEA32024FF480104FF4002CB6EB65
:1008E000020E75EB030E22BFB61A754640EA0C00E5
:1008F0005B084FEA3202B6EB020E75EB030E22BF25
:10090000B61A754640EA5C005B084FEA3202B6EB65
:10091000020E75EB030E22BFB61A754640EA9C0024
:100920005B084FEA3202B6EB020E75EB030E22BFF4
:10093000B61A754640EADC0055EA060E18D04FEAB2
:10094000051545EA16754FEA06164FEAC30343EA52
:1009500052734FEAC2025FEA1C1CC0D111F4801F1F
:100960000BD141EA00014FF000004FF0004CB6E718
:1009700011F4801F04BF01430020B4F1FD0C88BFB7
:10098000BCF5E06F3FF6AFAEB5EB030C04BFB6EBC2
:10099000020C5FEA500C50F1000041EB045170BDB5
:1009A0000EF0004E4EEA113114EB5C04C2BFD4EBE2
:1009B0000C0541EA045170BD41F480114FF0000E66
:1009C000013C90E645EA060E8DE60CEA135594EAE2
:1009D0000C0F08BF95EA0C0F3FF43BAF94EA0C0FE5
:1009E0000AD150EA01347FF434AF95EA0C0F7FF45A
:1009F00025AF104619462CE795EA0C0F06D152EAAE
:100A000003353FF4FDAE1046194622E750EA410691
:100A100018BF52EA43067FF4C5AE50EA41047FF4A2
:100A20000DAF52EA43057FF4EBAE12E74FF0FF3C07
:100A300006E000BF4FF0010C02E000BF4FF0010CD8
:100A40004DF804CD4FEA410C7FEA6C5C4FEA430C51
:100A500018BF7FEA6C5C1BD001B050EA410C0CBFA0
:100A600052EA430C91EA030F02BF90EA020F002002
:100A7000704710F1000F91EA030F58BF994208BF69
:100A800090422CBFD8176FEAE37040F00100704726
:100A90004FEA410C7FEA6C5C02D150EA013C07D17D
:100AA0004FEA430C7FEA6C5CD6D152EA033CD3D0C8
:100AB0005DF8040B704700BF8446104662468C46C2
:100AC0001946634600E000BF01B5FFF7B7FF0028F5
:100AD00048BF10F1000F01BD4DF808EDFFF7F4FF1E
:100AE0000CBF012000205DF808FB00BF4DF808EDA9
:100AF000FFF7EAFF34BF012000205DF808FB00BFCC
:100B00004DF808EDFFF7E0FF94BF012000205DF8ED
:100B100008FB00BF4DF808EDFFF7CEFF94BF0120A2
:100B200000205DF808FB00BF4DF808EDFFF7C4FF9B
:100B300034BF012000205DF808FB00BF4FEA410CE4
:100B40007FEA6C5C02D150EA013C0AD14FEA430CC7
:100B50007FEA6C5C02D152EA033C02D14FF0000004
:100B600070474FF0010070474FEA410212F5001242
:100B700015D211D56FF47873B3EB625212D94FEAE4
:100B8000C12343F0004343EA505311F0004F23FACE
:100B900002F018BF404270474FF00000704750EA23
:100BA000013005D111F0004008BF6FF000407047E0
:100BB0004FF00000704700BF4A0011D212F500123A
:100BC00011D20DD56FF47873B3EB62520ED44FEAA5
:100BD000C12343F0004343EA505323FA02F0704725
:100BE0004FF00000704750EA013002D14FF0FF3063
:100BF00070474FF0000070474FEA4102B2F1E04306
:100C000024BFB3F5001CDCF1FE5C0DD901F0004CF3
:100C10004FEAC0024CEA5070B2F1004F40EB830043
:100C200008BF20F00100704711F0804F21D113F16F
:100C30003872BCBF01F00040704741F480114FEAA8
:100C40005252C2F11802C2F1200C10FA0CF320FA31
:100C500002F018BF40F001004FEAC1234FEAD3234E
:100C600003FA0CFC40EA0C0023FA02F34FEA4303B8
:100C7000CCE77FEA625307D150EA01331EBF4FF041
:100C8000FE4040F44000704701F0004040F0FE405C
:100C900040F40000704700BF53B94AB9002908BFAB
:100CA00000281CBF4FF0FF314FF0FF3000F0A6B915
:100CB000ADF1080C6DE904CE00F03CF8DDF804E07D
:100CC000DDE9022304B0704738B500220023044652
:100CD0000D46FFF70BFF28B920462946BDE83840EE
:100CE00000F00AB8204605F1004100F005F8404246
:100CF00061EB410138BD00BFD0B50C4B0022064668
:100D00000F46FFF781FCFFF757FF0446FFF702FC91
:100D1000074B0022FFF778FC02460B463046394667
:100D2000FFF7BAFAFFF748FF2146D0BD0000F03DBB
:100D30000000F0412DE9F047089E0D4604460F469D
:100D4000002B4AD18A42944665D9B2FA82F343B164
:100D500002FA03FCC3F120029F4020FA02F217437B
:100D60009C404FEA1C4E1FFA8CF5B7FBFEF1220C9B
:100D70000EFB117742EA074201FB05F090420AD9C7
:100D80001CEB020201F1FF3780F01C81904240F21F
:100D9000198102396244121AA4B2B2FBFEF00EFBB2
:100DA000102244EA024400FB05F5A5420AD91CEBD7
:100DB000040400F1FF3280F00781A54240F2048173
:100DC0006444023840EA0140641B00211EB1DC404B
:100DD0000023C6E90043BDE8F0878B4208D9002E06
:100DE00000F0ED800021C6E900050846BDE8F08767
:100DF000B3FA83F1002949D1AB4202D3824200F217
:100E0000F880841A65EB030201201746002EE2D019
:100E1000C6E90047DFE702B9FFDEB2FA82F3002B32
:100E200040F090808A1A4FEA1C471FFA8CFE01217D
:100E3000B2FBF7F507FB1520220C42EA00420EFB3D
:100E400005F0904208D91CEB020205F1FF3802D2EE
:100E5000904200F2CB804546121AA4B2B2FBF7F0E2
:100E600007FB102244EA02440EFB00FEA64508D907
:100E70001CEB040400F1FF3202D2A64500F2BB8055
:100E80001046A4EB0E0440EA05409FE7C1F120079D
:100E90008B4022FA07FC4CEA030C05FA01F420FA15
:100EA00007F3FD404FEA1C492343B5FBF9F81FFA4D
:100EB0008CFE09FB18551C0C44EA054408FB0EF592
:100EC000A54202FA01F200FA01F00BD91CEB04046E
:100ED00008F1FF3A80F08880A54240F28580A8F1B1
:100EE00002086444641B9DB2B4FBF9F309FB13448C
:100EF00045EA044403FB0EFEA64508D91CEB040496
:100F000003F1FF356CD2A6456AD9023B644443EA3B
:100F10000843A3FB0295A4EB0E04AC42C846AE46C0
:100F200056D353D056B1B0EB080264EB0E0404FA6A
:100F300007F7CA40CC401743C6E9007418460021A1
:100F4000BDE8F087C3F1200102FA03FC20FA01F2A8
:100F500025FA01F19D402A434FEA1C471FFA8CFEF7
:100F6000B1FBF7F007FB1015110C41EA054100FB3E
:100F70000EF58D4204FA03F408D91CEB010100F1CF
:100F8000FF382FD28D422DD902386144491B92B2CD
:100F9000B1FBF7F507FB151142EA014205FB0EF123
:100FA000914208D91CEB020205F1FF3816D291429A
:100FB00014D9023D6244521A45EA004138E73146ED
:100FC000304608E73946E6E61046FBE64845A9D232
:100FD000B9EB020865EB0C0E013BA3E74546EAE7D7
:100FE0002B4694E74046D1E7D0467BE7023D62447A
:100FF00032E708460AE76444023842E7704700BF18
:1010000080B485B000AF78600B467B804FF6FF73ED
:10101000FB8142F224033B810023BB8126E0BB8994
:101020007A6813441B781B021AB2B7F90E3053408A
:101030001BB2FB810023FB7212E0B7F90E30002BCC
:1010400008DAFB895B001AB2B7F9083053401BB2CB
:10105000FB8102E0FB895B00FB81FB7A0133FB72C1
:10106000FB7A072BE9D9BB890133BB81BA897B881D
:101070009A42D4D3FB8918461437BD465DF8047BE9
:101080007047000080B400AF034B1B781846BD4684
:101090005DF8047B704700BF0203002080B584B078
:1010A00000AF03460A46FB711346BB71AA233B728D
:1010B000FB797B720123BB72BB79FB72BB7A9BB25B
:1010C00002339AB207F1080311461846FFF798FF5A
:1010D0000346BB81BB23BB7300BF1037BD4680BD39
:1010E00080B586B000AF714B00221A70704B1B8820
:1010F00019467048FFF784FF03463B826E4B1B88FE
:101100003A8A9A4207D06C4B1B8819463B8A1A468A
:101110006A4804F0DFFB6A4804F04AFC694B1B781C
:101120001946694804F0D6FB684B1B781946684895
:1011300004F0D0FB674804F0CDFB00237B610AE09C
:101140005C4A7B6913441B781946634804F0C2FB70
:101150007B6901337B615D4B1B781A467B69934247
:10116000EEDB0A2004F0C8FB564B1B78013B082B32
:1011700000F2958001A252F823F000BFA1110008EF
:10118000B7110008C1110008F31100083D12000852
:1011900075120008971200089F1200089F1200089D
:1011A0004E4804F005FC00210120FFF777FF4C4B6F
:1011B00002221A7076E000210220FFF76FFF71E033
:1011C0003C4A3B4607CA83E80700464B00221A60A8
:1011D0003B68454A1360BB68444A13607B68444AD5
:1011E00013603F4B04221A7000210320FFF756FFC3
:1011F00058E02F4B1B8819462E4800F07BF82C4BEB
:101200001B881A46374B1B681344364A1360354B0C
:101210001A68354B1B689A428CBF01230023DBB24E
:1012200019460420FFF73AFF2E4B1A682E4B1B6815
:101230009A4236D12A4B05221A7032E00023FB7401
:10124000284B1A68284B1B689A4201D10123FB7472
:10125000244B1A68244B1B689A4202D1FB7C002B5A
:1012600001D1012300E00023DBB219460520FFF77E
:1012700015FF17E00023FB7300F062F80123FB73F6
:10128000FB7B002B0CBF01230023DBB21946062099
:10129000FFF704FF06E0002000F038F802E000BF8E
:1012A00000E000BF00BF1837BD4680BD020300202C
:1012B00000030020F0010020EC02002078930008D9
:1012C000B0930008EA020020D0930008EB0200204F
:1012D000E4930008F8930008049400080C940008B4
:1012E000EE020020F4020020F0020020F8020020AC
:1012F000FC02002080B483B000AF78600B467B8096
:1013000000BF0C37BD465DF8047B704780B584B0E4
:1013100000AF0346FB710023FB6007E010220021B1
:10132000064804F045FCFB680133FB60FB681F2B9B
:10133000F4DD00BF00BF1037BD4680BD04030020B0
:1013400080B400AF00BFBD465DF8047B704700006D
:1013500080B586B002AF0346FB71FB793B73002377
:101360007B7307F10C014FF4FA7300930123054AD4
:10137000054802F095F8034B1B7818461037BD4618
:1013800080BD00BF180300201804002080B500AF06
:1013900001224FF40051164801F02CF90C2000F006
:1013A000DDFD00224FF40051114801F023F99F2088
:1013B000FFF7CEFF0020FFF7CBFF03461A460D4B89
:1013C0001A700020FFF7C4FF03461A460A4B1A7032
:1013D0000020FFF7BDFF03461A46084B1A70012292
:1013E0004FF40051024801F005F900BF80BD00BF75
:1013F00000040240140300201503002016030020FF
:1014000080B582B000AF06233B7100224FF400513B
:10141000094801F0EFF8391D4FF0FF33012207486A
:1014200001F0E3FD01224FF40051034801F0E2F81E
:1014300000BF0837BD4680BD0004024018040020EC
:1014400080B582B000AF05233B7100224FF40051FC
:101450000F4801F0CFF8391D4FF0FF3301220D483E
:1014600001F0C3FD39464FF0FF330122094801F076
:10147000FFFE3B7803F00103002BF3D101224FF470
:101480000051034801F0B6F800BF0837BD4680BDE3
:10149000000402401804002080B586B000AFF86058
:1014A000B9607A6002233B75BB681B0CDBB27B75AD
:1014B000BB681B0ADBB2BB75BB68DBB2FB75FFF711
:1014C0009FFF00224FF400510F4801F093F807F1FD
:1014D00014014FF0FF3304220C4801F086FD7B68B5
:1014E0009AB24FF0FF33F968084801F07EFD0122FF
:1014F0004FF40051044801F07DF8FFF7A1FF00BF51
:101500001837BD4680BD00BF00040240180400200B
:1015100080B586B000AFF860B9607A6003233B7590
:10152000BB681B0CDBB27B75BB681B0ADBB2BB75EF
:10153000BB68DBB2FB7500224FF400510E4801F08E
:1015400059F807F114014FF0FF3304220B4801F062
:101550004CFD7B689AB24FF0FF33F968074801F001
:1015600087FE01224FF40051034801F043F800BF09
:101570001837BD4680BD00BF00040240180400209B
:1015800080B58AB000AFF860B9607A6000237B62F2
:1015900000233B620023FB610023BB6100237B61CE
:1015A000BB68DBB2FB61FB69C3F58073BB617B6821
:1015B0001B0A7B627B68DBB23B62FB69002B21D19B
:1015C0007B6A002B13D17A68B968F868FFF764FF6B
:1015D0006FE04FF48072B968F868FFF75DFFBB6891
:1015E00003F58073BB60FB6803F58073FB607B6A67
:1015F0005A1E7A62002BECD13A6AB968F868FFF794
:101600004BFF56E07B6A002B20D13A6ABB699A42B5
:1016100016D93A6ABB69D31A7B61BA69B968F868A6
:10162000FFF73AFFBA68BB691344BB60FA68BB694D
:101630001344FB607A69B968F868FFF72DFF38E05A
:101640007A68B968F868FFF727FF32E07A68BB6903
:10165000D31A7B607B681B0A7B627B68DBB23B62D0
:10166000BA69B968F868FFF717FFBA68BB6913442D
:10167000BB60FA68BB691344FB600DE04FF48072F5
:10168000B968F868FFF708FFBB6803F58073BB60B3
:10169000FB6803F58073FB607B6A5A1E7A62002B3D
:1016A000ECD13B6A002B04D03A6AB968F868FFF7BE
:1016B000F3FE00BF2837BD4680BD000080B582B074
:1016C00000AF98233B71FFF79BFE00224FF40051BF
:1016D000094800F08FFF391D4FF0FF330122074802
:1016E00001F083FC01224FF40051034800F082FF17
:1016F00000BF0837BD4680BD00040240180400202A
:1017000080B582B000AF7860391D4FF0FF33012201
:10171000034802F007FA7B6818460837BD4680BDCB
:101720007004002080B582B000AF00F0A5FB00F08F
:1017300049F800F00FF900F0E3F800F0ABF8FFF71C
:1017400025FEFFF7BBFF00237B6009E07B68D9B271
:10175000194A7B6813440A461A707B6801337B6020
:101760007B680F2BF2DD10224FF400111248FFF7B7
:1017700007FF642000F0F2FB10224FF400110F4825
:10178000FFF7C6FE00233B600AE00C4A3B681344A7
:101790001B7819460A4804F09DF83B6801333B600A
:1017A0003B680F2BF1DDFFF76DFC0346002BFAD0F1
:1017B000FFF796FCF7E700BFB8040020C80400203C
:1017C0001C94000880B594B000AF07F120033022CC
:1017D0000021184604F0ECF907F10C0300221A600E
:1017E0005A609A60DA601A610023BB60274B1B6C59
:1017F000264A43F080531364244B1B6C03F0805340
:10180000BB60BB6800237B60214B1B68204A43F40C
:10181000404313601E4B1B6803F440437B607B68AE
:1018200001233B624FF480337B620223BB634FF49E
:101830008003FB6319233B64C0237B640623BB64E2
:101840000423FB6407F12003184600F0EDFE034675
:10185000002B01D000F014F90F23FB6002233B6141
:1018600000237B610023BB610023FB6107F10C03B4
:101870000121184601F050F90346002B01D000F079
:10188000FFF800BF5037BD4680BD00BF00380240A2
:101890000070004080B500AF174B184A1A60164B15
:1018A0004FF482725A60144B00229A60124B00224D
:1018B000DA60114B00221A610F4B00225A610E4B65
:1018C0004FF400729A610C4B2022DA610A4B00221D
:1018D0001A62094B00225A62074B00229A62064B99
:1018E0000A22DA62044801F0F7FA0346002B01D01D
:1018F00000F0C6F800BF80BD18040020003800408A
:1019000080B500AF114B124A1A60104B4FF4E13210
:101910005A600E4B00229A600C4B0022DA600B4B8F
:1019200000221A61094B0C225A61084B00229A616D
:10193000064B0022DA61054802F0A4F80346002BAA
:1019400001D000F09DF800BF80BD00BF70040020F2
:101950000010014080B58AB000AF07F114030022E7
:101960001A605A609A60DA601A6100233B61404B4A
:101970001B6B3F4A43F0040313633D4B1B6B03F0A7
:1019800004033B613B690023FB60394B1B6B384A06
:1019900043F080031363364B1B6B03F08003FB6043
:1019A000FB680023BB60324B1B6B314A43F00103E1
:1019B00013632F4B1B6B03F00103BB60BB68002359
:1019C0007B602B4B1B6B2A4A43F002031363284BAB
:1019D0001B6B03F002037B607B6800224FF4005115
:1019E000244800F007FE00224FF40051224800F086
:1019F00001FE4FF400537B610123BB610023FB61B7
:101A000000233B6207F1140319461A4800F06EFCEC
:101A100001237B610023BB610123FB6107F11403F8
:101A20001946164800F062FC4FF400537B61012315
:101A3000BB610023FB6100233B6207F114031946DD
:101A40000D4800F053FC10237B610223BB6100238F
:101A5000FB6103233B6205237B6207F114031946F4
:101A6000054800F043FC00BF2837BD4680BD00BFDD
:101A7000003802400008024000040240000002401A
:101A800080B400AF72B600BFFEE7000080B483B040
:101A900000AF00237B60104B5B6C0F4A43F4804324
:101AA00053640D4B5B6C03F480437B607B680023C5
:101AB0003B60094B1B6C084A43F080531364064B90
:101AC0001B6C03F080533B603B6800BF0C37BD4686
:101AD0005DF8047B704700BF0038024080B58AB0D3
:101AE00000AF786007F1140300221A605A609A6010
:101AF000DA601A617B681B68194A93422CD1002373
:101B00003B61184B1B6C174A43F480431364154B1D
:101B10001B6C03F480433B613B690023FB60114B6A
:101B20001B6B104A43F0020313630E4B1B6B03F055
:101B30000203FB60FB684FF444437B610223BB61FB
:101B40000023FB6103233B6205237B6207F114033F
:101B50001946054800F0CAFB00BF2837BD4680BDC6
:101B600000380040003802400004024080B58AB0CE
:101B700000AF786007F1140300221A605A609A607F
:101B8000DA601A617B681B681D4A934234D10023D6
:101B90003B611C4B5B6C1B4A43F010035364194BB5
:101BA0005B6C03F010033B613B690023FB60154B4A
:101BB0001B6B144A43F001031363124B1B6B03F0BE
:101BC0000103FB60FB684FF4C0637B610223BB61D0
:101BD0000023FB6103233B6207237B6207F11403AD
:101BE0001946094800F082FB00220021252000F060
:101BF000B4FA252000F0CDFA00BF2837BD4680BDDD
:101C000000100140003802400000024080B400AFE4
:101C1000FEE780B400AFFEE780B400AFFEE780B41B
:101C200000AFFEE780B400AFFEE780B400AF00BFB6
:101C3000BD465DF8047B704780B400AF00BFBD4671
:101C40005DF8047B704780B400AF00BFBD465DF80F
:101C5000047B704780B500AF00F060F900BF80BD25
:101C600080B500AF024801F0E9FF00BF80BD00BFB2
:101C70007004002080B400AF01231846BD465DF813
:101C8000047B704780B582B000AF7860396003F0A4
:101C9000E1FF034616221A604FF0FF33184608375B
:101CA000BD4680BD80B582B000AF78604FF0FF3197
:101CB0007868FFF7E7FFFEE780B586B000AFF86011
:101CC000B9607A6000237B610AE0AFF300800146CF
:101CD000BB685A1CBA60CAB21A707B6901337B6157
:101CE0007A697B689A42F0DB7B6818461837BD46F4
:101CF00080BD80B586B000AFF860B9607A6000231F
:101D00007B6109E0BB685A1CBA601B781846FFF774
:101D1000F7FC7B6901337B617A697B689A42F1DB6E
:101D20007B6818461837BD4680BD80B483B000AFCD
:101D300078604FF0FF3318460C37BD465DF8047BE2
:101D4000704780B483B000AF786039603B684FF46F
:101D500000525A60002318460C37BD465DF8047BDC
:101D6000704780B483B000AF7860012318460C3709
:101D7000BD465DF8047B704780B485B000AFF86065
:101D8000B9607A60002318461437BD465DF8047BBD
:101D90007047000080B586B000AF7860144A154BDC
:101DA000D31A7B617B693B61134B1B68002B02D10B
:101DB000114B124A1A60104B1A687B6813443A6937
:101DC0009A4207D203F046FF03460C221A604FF0F6
:101DD000FF3309E0084B1B68FB60074B1A687B6800
:101DE0001344054A1360FB6818461837BD4680BD8A
:101DF0000000022000040000D8040020300600206B
:101E000080B400AF064BD3F88830054A43F4700322
:101E1000C2F8883000BFBD465DF8047B704700BF44
:101E200000ED00E0DFF834D0FFF7EAFF0C480D4981
:101E30000D4A002302E0D458C4500433C4188C4225
:101E4000F9D30A4A0A4C002301E013600432A2428B
:101E5000FBD303F005FFFFF765FC7047000002208D
:101E600000000020D401002070980008D401002058
:101E70002C060020FEE7000080B500AF0E4B1B686B
:101E80000D4A43F4007313600B4B1B680A4A43F47A
:101E900080631360084B1B68074A43F48073136028
:101EA000032000F04FF90F2000F008F8FFF7EEFDD7
:101EB0000023184680BD00BF003C024080B582B0C0
:101EC00000AF7860124B1A68124B1B7819464FF41A
:101ED0007A73B3FBF1F3B2FBF3F3184600F067F942
:101EE0000346002B01D001230EE07B680F2B0AD89C
:101EF000002279684FF0FF3000F02FF9064A7B6826
:101F00001360002300E0012318460837BD4680BD5A
:101F100000000020080000200400002080B400AF72
:101F2000064B1B781A46064B1B681344044A136081
:101F300000BFBD465DF8047B704700BF080000206D
:101F4000DC04002080B400AF034B1B681846BD467C
:101F50005DF8047B704700BFDC04002080B584B0CE
:101F600000AF7860FFF7EEFFB8607B68FB60FB684E
:101F7000B3F1FF3F05D00A4B1B781A46FB681344A8
:101F8000FB6000BFFFF7DEFF0246BB68D31AFA68AA
:101F90009A42F7D800BF00BF1037BD4680BD00BFD2
:101FA0000800002080B485B000AF78607B6803F043
:101FB0000703FB600C4BDB68BB60BA684FF6FF039E
:101FC0001340BB60FB681A02BB68134343F0BF6356
:101FD00043F40033BB60044ABB68D36000BF1437CE
:101FE000BD465DF8047B704700ED00E080B400AFB3
:101FF000044BDB681B0A03F007031846BD465DF877
:10200000047B704700ED00E080B483B000AF03466E
:10201000FB7197F90730002B0BDBFB7903F01F02F4
:10202000074997F907305B09012000FA02F241F8ED
:10203000232000BF0C37BD465DF8047B704700BF0E
:1020400000E100E080B483B000AF03463960FB716B
:1020500097F90730002B0ADB3B68DAB20C4997F995
:1020600007301201D2B20B4483F800230AE03B6828
:10207000DAB20849FB7903F00F03043B1201D2B234
:102080000B441A7600BF0C37BD465DF8047B7047E1
:1020900000E100E000ED00E080B489B000AFF8603E
:1020A000B9607A60FB6803F00703FB61FB69C3F169
:1020B0000703042B28BF0423BB61FB690433062BF1
:1020C00002D9FB69033B00E000237B614FF0FF3244
:1020D000BB6902FA03F3DA43BB681A407B699A4092
:1020E0004FF0FF317B6901FA03F3D9437B680B4062
:1020F000134318462437BD465DF8047B7047000043
:1021000080B582B000AF78607B68013BB3F1807F1F
:1021100001D301230FE00A4A7B68013B53600F2182
:102120004FF0FF30FFF78EFF054B00229A60044B03
:1021300007221A60002318460837BD4680BD00BF3D
:1021400010E000E080B582B000AF78607868FFF7FB
:1021500029FF00BF0837BD4680BD80B586B000AFFF
:102160000346B9607A60FB7300237B61FFF73EFF93
:1021700078617A68B9687869FFF78EFF024697F947
:102180000F3011461846FFF75DFF00BF1837BD46F8
:1021900080BD80B582B000AF0346FB7197F9073070
:1021A0001846FFF731FF00BF0837BD4680BD80B538
:1021B00082B000AF78607868FFF7A2FF0346184648
:1021C0000837BD4680BD80B584B000AF78607B68BD
:1021D0009B6DFB60FFF7B6FEB8607B6893F8353007
:1021E000DBB2022B08D07B6880225A657B68002214
:1021F00083F83420012352E07B681B681A687B68EF
:102200001B6822F016021A607B681B685A697B689B
:102210001B6822F080025A617B681B6C002B03D183
:102220007B689B6C002B07D07B681B681A687B68F7
:102230001B6822F008021A607B681B681A687B68BA
:102240001B6822F001021A6013E0FFF77BFE0246D2
:10225000BB68D31A052B0CD97B6820225A657B6892
:10226000032283F835207B68002283F8342003237F
:1022700015E07B681B681B6803F00103002BE4D1A9
:102280007B68DB6D3F229A40FB689A607B68012285
:1022900083F835207B68002283F834200023184619
:1022A0001037BD4680BD80B483B000AF78607B68D6
:1022B00093F83530DBB2022B04D07B6880225A655C
:1022C00001230CE07B68052283F835207B681B68BE
:1022D0001A687B681B6822F001021A600023184606
:1022E0000C37BD465DF8047B7047000080B489B0B0
:1022F00000AF7860396000237B6100233B610023DD
:10230000BB610023FB6159E10122FB6902FA03F37F
:102310007B613B681B687A6913403B613A697B6962
:102320009A4240F048813B685B6803F00303012B4D
:1023300005D03B685B6803F00303022B30D17B6858
:102340009B68BB61FB695B00032202FA03F3DB437A
:10235000BA691340BB613B68DA68FB695B0002FA4B
:1023600003F3BA691343BB617B68BA699A607B68FF
:102370005B68BB610122FB6902FA03F3DB43BA69C4
:102380001340BB613B685B681B0903F00102FB69FA
:1023900002FA03F3BA691343BB617B68BA695A60F6
:1023A0003B685B6803F00303032B17D07B68DB6893
:1023B000BB61FB695B00032202FA03F3DB43BA69EA
:1023C0001340BB613B689A68FB695B0002FA03F348
:1023D000BA691343BB617B68BA69DA603B685B68C2
:1023E00003F00303022B23D1FB69DA087B68083270
:1023F00053F82230BB61FB6903F007039B000F22F7
:1024000002FA03F3DB43BA691340BB613B681A6904
:10241000FB6903F007039B0002FA03F3BA69134355
:10242000BB61FB69DA087B680832B96943F822109E
:102430007B681B68BB61FB695B00032202FA03F344
:10244000DB43BA691340BB613B685B6803F003027E
:10245000FB695B0002FA03F3BA691343BB617B6853
:10246000BA691A603B685B6803F44033002B00F0E4
:10247000A2800023FB60574B5B6C564A43F48043B9
:102480005364544B5B6C03F48043FB60FB68524A1B
:10249000FB699B08023352F82330BB61FB6903F0F0
:1024A00003039B000F2202FA03F3DB43BA691340D4
:1024B000BB617B68494A934219D07B68484A934282
:1024C00013D07B68474A93420DD07B68464A9342BB
:1024D00007D07B68454A934201D1042308E00723D3
:1024E00006E0032304E0022302E0012300E00023CE
:1024F000FA6902F0030292009340BA691343BB6188
:102500003549FB699B080233BA6941F82320384BEF
:102510009B68BB613B69DB43BA691340BB613B68A5
:102520005B6803F48013002B03D0BA693B69134343
:10253000BB612F4ABB6993602D4BDB68BB613B6974
:10254000DB43BA691340BB613B685B6803F400136B
:10255000002B03D0BA693B691343BB61244ABB69B2
:10256000D360234B5B68BB613B69DB43BA691340B3
:10257000BB613B685B6803F40033002B03D0BA698E
:102580003B691343BB611A4ABB695360184B1B6814
:10259000BB613B69DB43BA691340BB613B685B6865
:1025A00003F48033002B03D0BA693B691343BB614A
:1025B0000F4ABB691360FB690133FB61FB690F2B99
:1025C0007FF6A2AE00BF00BF2437BD465DF8047B96
:1025D000704700BF00380240003801400000024050
:1025E0000004024000080240000C024000100240BB
:1025F000003C014080B483B000AF78600B467B8024
:1026000013467B707B78002B03D07A887B689A61B5
:1026100003E07B881A047B689A6100BF0C37BD46D3
:102620005DF8047B7047000080B586B000AF78602D
:102630007B68002B01D1012367E27B681B6803F0F4
:102640000103002B75D0884B9B6803F00C03042B0F
:102650000CD0854B9B6803F00C03082B12D1824BE6
:102660005B6803F48003B3F5800F0BD17E4B1B68CE
:1026700003F40033002B5BD07B685B68002B57D1E1
:10268000012342E27B685B68B3F5803F06D1764B5D
:102690001B68754A43F4803313601DE07B685B68F8
:1026A000B3F5A02F0CD1704B1B686F4A43F4802305
:1026B00013606D4B1B686C4A43F4803313600BE06E
:1026C000694B1B68684A23F480331360664B1B68B0
:1026D000654A23F4802313607B685B68002B13D06A
:1026E000FFF730FC386108E0FFF72CFC02463B693D
:1026F000D31A642B01D9032307E25B4B1B6803F455
:102700000033002BF0D014E0FFF71CFC386108E028
:10271000FFF718FC02463B69D31A642B01D9032347
:10272000F3E1514B1B6803F40033002BF0D100E0C0
:1027300000BF7B681B6803F00203002B63D04A4B89
:102740009B6803F00C03002B0BD0474B9B6803F0F6
:102750000C03082B1CD1444B5B6803F48003002B53
:1027600016D1414B1B6803F00203002B05D07B6898
:10277000DB68012B01D00123C7E13B4B1B6823F031
:10278000F8027B681B69DB00374913430B603AE0B2
:102790007B68DB68002B20D0344B01221A60FFF7E6
:1027A000D1FB386108E0FFF7CDFB02463B69D31A45
:1027B000022B01D90323A8E12B4B1B6803F0020372
:1027C000002BF0D0284B1B6823F0F8027B681B69B4
:1027D000DB00254913430B6015E0244B00221A60EF
:1027E000FFF7B0FB386108E0FFF7ACFB02463B693E
:1027F000D31A022B01D9032387E11B4B1B6803F07B
:102800000203002BF0D17B681B6803F00803002B48
:1028100036D07B685B69002B16D0154B01221A60FD
:10282000FFF790FB386108E0FFF78CFB02463B693D
:10283000D31A022B01D9032367E10B4B5B6F03F023
:102840000203002BF0D01BE0094B00221A60FFF7B7
:1028500079FB38610EE0FFF775FB02463B69D31A3E
:10286000022B07D9032350E1003802400000474201
:10287000800E4742884B5B6F03F00203002BEAD1C6
:102880007B681B6803F00403002B00F09780002393
:10289000FB75814B1B6C03F08053002B0FD1002381
:1028A000BB607D4B1B6C7C4A43F0805313647A4BB6
:1028B0001B6C03F08053BB60BB680123FB75774B37
:1028C0001B6803F48073002B18D1744B1B68734A88
:1028D00043F480731360FFF735FB386108E0FFF7BE
:1028E00031FB02463B69D31A022B01D903230CE1C9
:1028F0006A4B1B6803F48073002BF0D07B689B68E5
:10290000012B06D1644B1B6F634A43F0010313672D
:102910001CE07B689B68052B0CD15F4B1B6F5E4AEC
:1029200043F0040313675C4B1B6F5B4A43F00103E6
:1029300013670BE0584B1B6F574A23F001031367D3
:10294000554B1B6F544A23F0040313677B689B6845
:10295000002B15D0FFF7F6FA38610AE0FFF7F2FA1C
:1029600002463B69D31A41F28832934201D90323CC
:10297000CBE0494B1B6F03F00203002BEED014E0B9
:10298000FFF7E0FA38610AE0FFF7DCFA02463B693C
:10299000D31A41F28832934201D90323B5E03E4B6A
:1029A0001B6F03F00203002BEED1FB7D012B05D141
:1029B000394B1B6C384A23F0805313647B689B6946
:1029C000002B00F0A180344B9B6803F00C03082B14
:1029D0005CD07B689B69022B41D1314B00221A608D
:1029E000FFF7B0FA386108E0FFF7ACFA02463B693E
:1029F000D31A022B01D9032387E0274B1B6803F06E
:102A00000073002BF0D17B68DA697B681B6A1A437C
:102A10007B685B6A9B011A437B689B6A5B08013B8E
:102A20001B041A437B68DB6A1B061B4913434B607C
:102A30001B4B01221A60FFF785FA386108E0FFF7A7
:102A400081FA02463B69D31A022B01D903235CE0C9
:102A5000114B1B6803F00073002BF0D054E0104BB7
:102A600000221A60FFF76EFA386108E0FFF76AFA91
:102A700002463B69D31A022B01D9032345E0064BDA
:102A80001B6803F00073002BF0D13DE07B689B696D
:102A9000012B07D1012338E00038024000700040CC
:102AA000600047421B4B5B68FB607B689B69012BA6
:102AB00028D0FB6803F480027B68DB699A4221D14D
:102AC000FB6803F03F027B681B6A9A421AD1FA68DE
:102AD00047F6C07313407A68526A9201934211D14B
:102AE000FB6803F440327B689B6A5B08013B1B0474
:102AF0009A4207D1FB6803F070627B68DB6A1B06B1
:102B00009A4201D0012300E0002318461837BD4641
:102B100080BD00BF0038024080B584B000AF78604F
:102B200039607B68002B01D10123CCE0684B1B6826
:102B300003F007033A689A420CD9654B3A68D2B25F
:102B40001A70634B1B6803F007033A689A4201D07E
:102B50000123B8E07B681B6803F00203002B20D040
:102B60007B681B6803F00403002B05D0594B9B685E
:102B7000584A43F4E05393607B681B6803F00803F2
:102B8000002B05D0534B9B68524A43F4604393603B
:102B9000504B9B6823F0F0027B689B684D491343C0
:102BA0008B607B681B6803F00103002B44D07B68BB
:102BB0005B68012B07D1474B1B6803F40033002BE4
:102BC00019D101237FE07B685B68022B03D07B680F
:102BD0005B68032B07D13F4B1B6803F00073002B8E
:102BE00009D101236FE03B4B1B6803F00203002B6C
:102BF00001D1012367E0374B9B6823F003027B6818
:102C00005B68344913438B60FFF79CF9F8600AE076
:102C1000FFF798F90246FB68D31A41F288329342D3
:102C200001D903234FE02B4B9B6803F00C027B6818
:102C30005B689B009A42EBD1254B1B6803F00703AE
:102C40003A689A420CD2224B3A68D2B21A70204BA0
:102C50001B6803F007033A689A4201D0012332E06F
:102C60007B681B6803F00403002B08D0194B9B689A
:102C700023F4E0527B68DB68164913438B607B6862
:102C80001B6803F00803002B09D0124B9B6823F448
:102C900060427B681B69DB000E4913438B6000F0C8
:102CA00021F802460B4B9B681B0903F00F030A49EE
:102CB000CB5C22FA03F3094A1360094B1B681846E0
:102CC000FFF7FCF8002318461037BD4680BD00BF53
:102CD000003C024000380240209400080000002020
:102CE000040000202DE9B04F90B000AF00237B63BB
:102CF0000023FB6300233B630023BB63594B9B68AA
:102D000003F00C03082B0DD0082B00F2A180002B40
:102D100002D0042B03D09BE0534BBB639BE0534B8F
:102D2000BB6398E04F4B5B6803F03F037B634D4B05
:102D30005B6803F48003002B28D04A4B5B689B0937
:102D400000223B627A623B6AC3F308000021474BD2
:102D500003FB01F2002300FB03F31344434AA0FBEF
:102D60000212FA620A46BA62FA6A1344FB627B6B89
:102D70000022BB61FA61D7E90623D7E90A01FDF712
:102D80008BFF02460B461346FB6353E0354B5B68F3
:102D90009B0900223B617A613B69C3F3080A4FF04B
:102DA000000B52465B464FF000004FF00001590106
:102DB00041EAD261500102460B46B2EB0A0863EBCE
:102DC0000B094FF000024FF000034FEA891343EA6A
:102DD00098634FEA8812B2EB080463EB09054FF0E1
:102DE00000024FF00003EB0043EA5473E200144684
:102DF0001D4614EB0A033B6045EB0B037B604FF071
:102E000000024FF00003D7E9004529468B02214616
:102E100043EA915321468A02104619467B6B0022F1
:102E2000BB60FA60D7E90223FDF736FF02460B4686
:102E30001346FB630B4B5B681B0C03F0030301336E
:102E40005B003B63FA6B3B6BB2FBF3F3BB6302E0EB
:102E5000054BBB6300BFBB6B18464037BD46BDE8A2
:102E6000B08F00BF003802400024F40040787D019C
:102E700080B400AF034B1B681846BD465DF8047B69
:102E8000704700BF0000002080B500AFFFF7F0FFE3
:102E90000246054B9B689B0A03F007030349CB5C82
:102EA00022FA03F3184680BD00380240309400082F
:102EB00080B500AFFFF7DCFF0246054B9B685B0B5C
:102EC00003F007030349CB5C22FA03F3184680BDE5
:102ED000003802403094000880B582B000AF7860BE
:102EE0007B68002B01D101237BE07B685B6A002BB0
:102EF00008D17B685B68B3F5827F09D07B680022CC
:102F0000DA6105E07B6800221A617B6800225A6161
:102F10007B6800229A627B6893F85130DBB2002B09
:102F200006D17B68002283F850207868FEF7D6FD32
:102F30007B68022283F851207B681B681A687B68D3
:102F40001B6822F040021A607B685B6803F482729F
:102F50007B689B6803F404431A437B68DB6803F4D3
:102F600000631A437B681B6903F002031A437B6802
:102F70005B6903F001031A437B689B6903F40073E8
:102F80001A437B68DB6903F038031A437B681B6ACA
:102F900003F0800342EA03017B689B6A03F400525A
:102FA0007B681B680A431A607B689B691B0C03F0F3
:102FB00004017B685B6A03F010027B681B680A43AC
:102FC0005A607B681B68DA697B681B6822F40062C0
:102FD000DA617B6800225A657B68012283F8512000
:102FE000002318460837BD4680BD80B588B000AFC5
:102FF000F860B9603B601346FB800023FB77FB68F9
:1030000093F85030012B01D102232DE1FB680122FE
:1030100083F85020FEF796FFB861FB88FB82FB68BF
:1030200093F85130DBB2012B02D00223FB7716E17B
:10303000BB68002B02D0FB88002B02D10123FB7759
:103040000DE1FB68032283F85120FB6800225A65DA
:10305000FB68BA681A63FB68FA889A86FB68FA8884
:10306000DA86FB6800229A63FB6800229A87FB6875
:103070000022DA87FB6800225A64FB6800221A6487
:10308000FB689B68B3F5004F0FD1FB681B681A689B
:10309000FB681B6822F040021A60FB681B681A6814
:1030A000FB681B6842F480421A60FB681B681B685F
:1030B00003F04003402B07D0FB681B681A68FB68CD
:1030C0001B6842F040021A60FB68DB68B3F5006FD2
:1030D0004FD1FB685B68002B02D0FB8A012B42D1E9
:1030E000FB681B6B1A88FB681B68DA60FB681B6B4C
:1030F0009A1CFB681A63FB68DB8E9BB2013B9AB299
:10310000FB68DA862FE0FB681B689B6803F002030C
:10311000022B12D1FB681B6B1A88FB681B68DA60F4
:10312000FB681B6B9A1CFB681A63FB68DB8E9BB207
:10313000013B9AB2FB68DA8615E0FEF703FF024610
:10314000BB69D31A3A689A4203D83B68B3F1FF3F90
:1031500002D13B68002B06D10323FB77FB680122D9
:1031600083F851207BE0FB68DB8E9BB2002BCAD139
:1031700050E0FB685B68002B02D0FB8A012B44D136
:10318000FB681A6BFB681B680C3312781A70FB68BB
:103190001B6B5A1CFB681A63FB68DB8E9BB2013BFE
:1031A0009AB2FB68DA8630E0FB681B689B6803F024
:1031B0000203022B13D1FB681A6BFB681B680C33EC
:1031C00012781A70FB681B6B5A1CFB681A63FB6849
:1031D000DB8E9BB2013B9AB2FB68DA8615E0FEF704
:1031E000B1FE0246BB69D31A3A689A4203D83B68DB
:1031F000B3F1FF3F02D13B68002B06D10323FB77DD
:10320000FB68012283F8512029E0FB68DB8E9BB22A
:10321000002BC9D1BA693968F86800F0DFFB0346B2
:10322000002B02D0FB6820225A65FB689B68002BAC
:103230000AD100233B61FB681B68DB683B61FB68CC
:103240001B689B683B613B69FB685B6D002B02D090
:103250000123FB7703E0FB68012283F85120FB6820
:10326000002283F85020FB7F18462037BD4680BDE2
:1032700080B588B002AFF860B9603B601346FB8050
:103280000023FB75FB6893F85130DBB2012B02D0B1
:103290000223FB75FBE0FB685B68B3F5827F12D10C
:1032A000FB689B68002B0ED1FB68042283F8512039
:1032B000FA883B6800931346BA68B968F86800F06A
:1032C000EFF80346E8E0FB6893F85030012B01D19A
:1032D0000223E1E0FB68012283F85020FEF732FE72
:1032E0003861BB68002B02D0FB88002B02D1012380
:1032F000FB75CCE0FB68042283F85120FB680022B8
:103300005A65FB68BA689A63FB68FA889A87FB6813
:10331000FA88DA87FB6800221A63FB6800229A8623
:10332000FB680022DA86FB6800221A64FB68002230
:103330005A64FB689B68B3F5004F0FD1FB681B68AC
:103340001A68FB681B6822F040021A60FB681B6861
:103350001A68FB681B6822F480421A60FB681B68CD
:103360001B6803F04003402B07D0FB681B681A68FA
:10337000FB681B6842F040021A60FB68DB68002BA8
:103380006AD132E0FB681B689B6803F00103012BE4
:1033900015D1FB681B6803F10C02FB689B6B12786C
:1033A000D2B21A70FB689B6B5A1CFB689A63FB686D
:1033B000DB8F9BB2013B9AB2FB68DA8715E0FEF720
:1033C000C1FD02463B69D31A3A689A4203D83B686A
:1033D000B3F1FF3F02D13B68002B06D10323FB75FD
:1033E000FB68012283F8512051E0FB68DB8F9BB220
:1033F000002BC7D135E0FB681B689B6803F0010315
:10340000012B13D1FB681B68DA68FB689B6B92B2D7
:103410001A80FB689B6B9A1CFB689A63FB68DB8FC6
:103420009BB2013B9AB2FB68DA8715E0FEF78AFD92
:1034300002463B69D31A3A689A4203D83B68B3F113
:10344000FF3F02D13B68002B06D10323FB75FB68CD
:10345000012283F851201AE0FB68DB8F9BB2002B1E
:10346000C9D13A693968F86800F052FA0346002B6E
:1034700002D0FB6820225A65FB685B6D002B02D0EE
:103480000123FB7503E0FB68012283F85120FB68F0
:10349000002283F85020FB7D18461837BD4680BDBA
:1034A00080B58CB000AFF860B9607A607B80012392
:1034B000FB62002387F82B30FB6893F85030012B18
:1034C00001D1022398E1FB68012283F85020FEF726
:1034D00039FD7862FB6893F8513087F82330FB6838
:1034E0005B68FB617B887B8397F82330012B0FD0CF
:1034F000FB69B3F5827F07D1FB689B68002B03D182
:1035000097F82330042B03D0022387F82B306DE18A
:10351000BB68002B05D07B68002B02D07B88002B7A
:1035200003D1012387F82B3060E1FB6893F8513019
:10353000DBB2042B03D0FB68052283F85120FB6823
:1035400000225A65FB687A689A63FB687A88DA8792
:10355000FB687A889A87FB68BA681A63FB687A887E
:10356000DA86FB687A889A86FB6800221A64FB6810
:1035700000225A64FB681B681B6803F04003402B61
:1035800007D0FB681B681A68FB681B6842F04002A2
:103590001A60FB68DB68B3F5006F7CD1FB685B6881
:1035A000002B02D07B8B012B6AD1FB681B6B1A8826
:1035B000FB681B68DA60FB681B6B9A1CFB681A636C
:1035C000FB68DB8E9BB2013B9AB2FB68DA8657E060
:1035D000FB681B689B6803F00203022B1BD1FB688E
:1035E000DB8E9BB2002B16D0FB6A012B13D1FB683C
:1035F0001B6B1A88FB681B68DA60FB681B6B9A1CE4
:10360000FB681A63FB68DB8E9BB2013B9AB2FB68D6
:10361000DA860023FB62FB681B689B6803F00103EA
:10362000012B19D1FB68DB8F9BB2002B14D0FB68F8
:103630001B68DA68FB689B6B92B21A80FB689B6B15
:103640009A1CFB689A63FB68DB8F9BB2013B9AB2C2
:10365000FB68DA870123FB62FEF774FC02467B6A93
:10366000D31ABA6B9A420BD8BB6BB3F1FF3F07D0AA
:10367000032387F82B30FB68012283F85120B5E043
:10368000FB68DB8E9BB2002BA2D1FB68DB8F9BB269
:10369000002B9DD180E0FB685B68002B02D07B8B08
:1036A000012B6FD1FB681A6BFB681B680C33127817
:1036B0001A70FB681B6B5A1CFB681A63FB68DB8E75
:1036C0009BB2013B9AB2FB68DA865BE0FB681B6841
:1036D0009B6803F00203022B1CD1FB68DB8E9BB2BC
:1036E000002B17D0FB6A012B14D1FB681A6BFB6807
:1036F0001B680C3312781A70FB681B6B5A1CFB6832
:103700001A63FB68DB8E9BB2013B9AB2FB68DA86D8
:103710000023FB62FB681B689B6803F00103012B1D
:1037200019D1FB68DB8F9BB2002B14D0FB681B68A0
:10373000DA68FB689B6BD2B21A70FB689B6B5A1CF1
:10374000FB689A63FB68DB8F9BB2013B9AB2FB6814
:10375000DA870123FB62FEF7F5FB02467B6AD31A88
:10376000BA6B9A4203D8BB6BB3F1FF3F02D1BB6B7C
:10377000002B07D1032387F82B30FB68012283F845
:10378000512033E0FB68DB8E9BB2002B9ED1FB689F
:10379000DB8F9BB2002B99D17A6AB96BF86800F085
:1037A0001DF90346002B06D0012387F82B30FB6858
:1037B00020225A651AE0FB689B68002B0AD100237F
:1037C0007B61FB681B68DB687B61FB681B689B682F
:1037D0007B617B69FB685B6D002B03D0012387F85D
:1037E0002B3003E0FB68012283F85120FB680022A4
:1037F00083F8502097F82B3018463037BD4680BDEF
:1038000080B588B000AFF860B9603B601346FB71CB
:10381000FEF798FB0246BB6A9B1A3A681344FB61A9
:10382000FEF790FBB861394B1B685B011B0DFA6911
:1038300002FB03F37B6154E03B68B3F1FF3F50D0E0
:10384000FEF780FB0246BB69D31AFA699A4202D995
:10385000FB69002B3DD1FB681B685A68FB681B683D
:1038600022F0E0025A60FB685B68B3F5827F11D1F9
:10387000FB689B68B3F5004F04D0FB689B68B3F509
:10388000806F07D1FB681B681A68FB681B6822F011
:1038900040021A60FB689B6AB3F5005F0FD1FB68BA
:1038A0001B681A68FB681B6822F400521A60FB68E8
:1038B0001B681A68FB681B6842F400521A60FB68B8
:1038C000012283F85120FB68002283F85020032353
:1038D00017E07B69002B01D10023FB617B69013B71
:1038E0007B61FB681B689A68BB681340BA689A42A0
:1038F0000CBF01230023DBB21A46FB799A429BD10D
:10390000002318462037BD4680BD00BF00000020C0
:1039100080B586B002AFF860B9607A60FB685B681A
:10392000B3F5827F11D1FB689B68B3F5004F04D0DB
:10393000FB689B68B3F5806F07D1FB681B681A684A
:10394000FB681B6822F040021A60FB685B68B3F5F5
:10395000827F2AD1FB689B68B3F5806F12D07B68A9
:103960000093BB6800228021F868FFF749FF0346F7
:10397000002B2DD0FB685B6D43F02002FB685A657D
:10398000032326E07B680093BB6800220121F868CE
:10399000FFF736FF0346002B1AD0FB685B6D43F040
:1039A0002002FB685A65032313E07B680093BB6821
:1039B00000220121F868FFF723FF0346002B07D000
:1039C000FB685B6D43F02002FB685A65032300E04F
:1039D000002318461037BD4680BD000080B588B072
:1039E00002AFF860B9607A607B680093BB6801221F
:1039F0000221F868FFF704FF0346002B07D0FB689D
:103A00005B6D43F02002FB685A65032332E01B4BD9
:103A10001B681B4AA2FB03235B0D4FF47A7202FB67
:103A200003F37B61FB685B68B3F5827F12D17B682F
:103A30000093BB6800228021F868FFF7E1FE03468F
:103A4000002B16D0FB685B6D43F02002FB685A65C3
:103A500003230FE07B69002B0AD07B69013B7B616C
:103A6000FB681B689B6803F08003802BF2D000E0AA
:103A700000BF002318461837BD4680BD0000002057
:103A8000819F5E1680B582B000AF78607B68002BA6
:103A900001D1012342E07B6893F84130DBB2002B77
:103AA00006D17B68002283F840207868FEF75EF834
:103AB0007B68242283F841207B681B68DA687B6876
:103AC0001B6822F40052DA60786800F069FD7B68B8
:103AD0001B681A697B681B6822F490421A617B6834
:103AE0001B685A697B681B6822F02A025A617B684E
:103AF0001B68DA687B681B6842F40052DA607B68F6
:103B000000225A647B68202283F841207B682022AF
:103B100083F842207B6800225A6300231846083746
:103B2000BD4680BD80B58AB002AFF860B9603B6029
:103B30001346FB8000237B61FB6893F84130DBB2C6
:103B4000202B75D1BB68002B02D0FB88002B01D144
:103B500001236EE0FB6800225A64FB68212283F88F
:103B60004120FEF7EFF97861FB68FA889A84FB68D8
:103B7000FA88DA84FB689B68B3F5805F08D1FB683C
:103B80001B69002B04D10023FB61BB68BB6103E010
:103B9000BB68FB610023BB612EE03B6800937B693F
:103BA00000228021F86800F005FB0346002B05D0B9
:103BB000FB68202283F8412003233AE0FB69002BB5
:103BC0000BD1BB691B881A46FB681B68C2F308024D
:103BD0005A60BB690233BB6107E0FB691A78FB6876
:103BE0001B685A60FB690133FB61FB68DB8C9BB28D
:103BF000013B9AB2FB68DA84FB68DB8C9BB2002B3A
:103C0000CBD13B6800937B6900224021F86800F02B
:103C1000D1FA0346002B05D0FB68202283F841200F
:103C2000032306E0FB68202283F84120002300E004
:103C3000022318462037BD4680BD000080B5BAB0CB
:103C400000AF78607B681B681B68C7F8E4307B684E
:103C50001B68DB68C7F8E0307B681B685B69C7F8E6
:103C6000DC300023C7F8D8300023C7F8D430D7F8A9
:103C7000E43003F00F03C7F8D830D7F8D830002B62
:103C80000FD1D7F8E43003F02003002B09D0D7F888
:103C9000E03003F02003002B03D0786800F0C2FB73
:103CA0005BE2D7F8D830002B00F0DE80D7F8DC30AC
:103CB00003F00103002B06D1D7F8E03003F4907332
:103CC000002B00F0D180D7F8E43003F00103002B83
:103CD0000BD0D7F8E03003F48073002B05D07B685D
:103CE0005B6C43F001027B685A64D7F8E43003F060
:103CF0000403002B0BD0D7F8DC3003F00103002BBA
:103D000005D07B685B6C43F002027B685A64D7F88D
:103D1000E43003F00203002B0BD0D7F8DC3003F0C3
:103D20000103002B05D07B685B6C43F004027B68C9
:103D30005A64D7F8E43003F00803002B11D0D7F809
:103D4000E03003F02003002B05D1D7F8DC3003F07E
:103D50000103002B05D07B685B6C43F008027B6895
:103D60005A647B685B6C002B00F0F281D7F8E4307A
:103D700003F02003002B08D0D7F8E03003F0200335
:103D8000002B02D0786800F04DFB7B681B685B69F4
:103D900003F04003402B0CBF01230023DBB2C7F824
:103DA000D4307B685B6C03F00803002B03D1D7F899
:103DB000D430002B4FD0786800F055FA7B681B6830
:103DC0005B6903F04003402B41D17B681B681433CF
:103DD000C7F89C30D7F89C3053E8003FC7F89830BC
:103DE000D7F8983023F04003C7F8D0307B681B68C1
:103DF0001433D7F8D020C7F8A820C7F8A430D7F8D4
:103E0000A410D7F8A82041E80023C7F8A030D7F8BD
:103E1000A030002BD9D17B68DB6B002B13D07B68E3
:103E2000DB6B7E4A1A657B68DB6B1846FEF73BFA54
:103E30000346002B16D07B68DB6B1B6D7A68D26B58
:103E4000104698470EE0786800F09EF90AE078681E
:103E500000F09AF906E0786800F096F97B68002295
:103E60005A6475E100BF73E17B681B6B012B40F066
:103E70004F81D7F8E43003F01003002B00F04881A5
:103E8000D7F8E03003F01003002B00F0418100234D
:103E9000BB607B681B681B68BB607B681B685B68DA
:103EA000BB60BB687B681B685B6903F04003402B09
:103EB00040F0B6807B68DB6B1B685B68A7F8BE30A0
:103EC000B7F8BE30002B00F045817B689B8DB7F8BA
:103ED000BE209A4280F03E817B68B7F8BE20DA852A
:103EE0007B68DB6BDB69B3F5807F00F088807B68E3
:103EF0001B680C33C7F88830D7F8883053E8003F88
:103F0000C7F88430D7F8843023F48073C7F8B8300A
:103F10007B681B680C33D7F8B820C7F89420C7F823
:103F20009030D7F89010D7F8942041E80023C7F8D4
:103F30008C30D7F88C30002BD9D17B681B681433B8
:103F40007B677B6F53E8003F3B673B6F23F00103C8
:103F5000C7F8B4307B681B681433D7F8B420C7F8AF
:103F60008020FB67F96FD7F8802041E80023BB670A
:103F7000BB6F002BE1D17B681B6814333B663B6E43
:103F800053E8003FFB65FB6D23F04003C7F8B030FA
:103F90007B681B681433D7F8B020FA66BB66B96E2D
:103FA000FA6E41E800237B667B6E002BE3D17B68D1
:103FB000202283F842207B6800221A637B681B68FA
:103FC0000C33FB64FB6C53E8003FBB64BB6C23F019
:103FD0001003C7F8AC307B681B680C33D7F8AC20F3
:103FE000BA657B65796DBA6D41E800233B653B6D31
:103FF000002BE3D17B68DB6B1846FEF7E4F87B68A7
:1040000002225A637B689A8D7B68DB8D9BB2D31A40
:104010009BB21946786800F0C1F89BE02D43000878
:104020007B689A8D7B68DB8D9BB2D31AA7F8CE3064
:104030007B68DB8D9BB2002B00F08E80B7F8CE3012
:10404000002B00F089807B681B680C33BB63BB6B63
:1040500053E8003F7B637B6B23F49073C7F8C83051
:104060007B681B680C33D7F8C8207A643B64396CD2
:104070007A6C41E80023FB63FB6B002BE3D17B6888
:104080001B6814337B627B6A53E8003F3B623B6AE8
:1040900023F00103C7F8C4307B681B681433D7F8DA
:1040A000C4203A63FB62F96A3A6B41E80023BB62C1
:1040B000BB6A002BE3D17B68202283F842207B6817
:1040C00000221A637B681B680C333B613B6953E831
:1040D000003FFB60FB6823F01003C7F8C0307B682B
:1040E0001B680C33D7F8C020FA61BB61B969FA6963
:1040F00041E800237B617B69002BE3D17B680222CE
:104100005A63B7F8CE301946786800F047F823E0D4
:10411000D7F8E43003F08003002B09D0D7F8E03063
:1041200003F08003002B03D0786800F013F914E04B
:10413000D7F8E43003F04003002B0ED0D7F8E0307E
:1041400003F04003002B08D0786800F053F904E036
:1041500000BF02E000BF00E000BFE837BD4680BD01
:1041600080B483B000AF786000BF0C37BD465DF807
:10417000047B704780B483B000AF786000BF0C3719
:10418000BD465DF8047B704780B483B000AF7860B3
:1041900000BF0C37BD465DF8047B704780B483B028
:1041A00000AF78600B467B8000BF0C37BD465DF8E2
:1041B000047B704780B586B000AFF860B9603B60A3
:1041C0001346FB713BE03B6AB3F1FF3F37D0FDF78D
:1041D000B9FE02463B68D31A3A6A9A4202D33B6A56
:1041E000002B01D103233AE0FB681B68DB6803F076
:1041F0000403002B23D0BB68802B20D0BB68402B4E
:104200001DD0FB681B681B6803F00803082B16D140
:1042100000237B61FB681B681B687B61FB681B6874
:104220005B687B617B69F86800F01DF8FB68082219
:104230005A64FB68002283F8402001230FE0FB68EA
:104240001B681A68BB681340BA689A420CBF012306
:104250000023DBB21A46FB799A42B4D000231846F9
:104260001837BD4680BD80B495B000AF78607B68DC
:104270001B680C337B637B6B53E8003F3B633B6BFA
:1042800023F49073FB647B681B680C33FA6C3A640C
:10429000FB63F96B3A6C41E80023BB63BB6B002BFB
:1042A000E5D17B681B6814333B623B6A53E8003FEF
:1042B000FB61FB6923F00103BB647B681B6814335B
:1042C000BA6CFA62BB62B96AFA6A41E800237B629F
:1042D0007B6A002BE5D17B681B6B012B19D17B68B6
:1042E0001B680C33FB60FB6853E8003FBB60BB6896
:1042F00023F010037B647B681B680C337A6CBA6113
:104300007B617969BA6941E800233B613B69002B15
:10431000E5D17B68202283F842207B6800221A6363
:1043200000BF5437BD465DF8047B704780B584B04C
:1043300000AF78607B689B6BFB60FB680022DA85CE
:10434000FB680022DA84F868FFF71EFF00BF103711
:10435000BD4680BD80B485B000AF78607B6893F8BF
:104360004130DBB2212B3ED17B689B68B3F5805F87
:1043700014D17B681B69002B10D17B681B6AFB6022
:10438000FB681B881A467B681B68C2F308025A60E8
:104390007B681B6A9A1C7B681A6208E07B681B6A50
:1043A000591C7A6811621A787B681B685A607B68AE
:1043B000DB8C9BB2013B9BB27A681946D184002BFF
:1043C0000FD17B681B68DA687B681B6822F080026B
:1043D000DA607B681B68DA687B681B6842F0400221
:1043E000DA60002300E0022318461437BD465DF86A
:1043F000047B704780B582B000AF78607B681B6833
:10440000DA687B681B6822F04002DA607B68202251
:1044100083F841207868FFF7A3FE00231846083789
:10442000BD4680BD80B58CB000AF78607B6893F8E6
:104430004230DBB2222B40F0AE807B689B68B3F544
:10444000805F17D17B681B69002B13D10023FB62AF
:104450007B689B6ABB627B681B685B689BB2C3F32B
:1044600008039AB2BB6A1A807B689B6A9A1C7B68B5
:104470009A6226E07B689B6AFB620023BB627B68D2
:104480009B68B3F5805F07D07B689B68002B0AD1DF
:104490007B681B69002B06D17B681B685B68DAB2FE
:1044A000FB6A1A7008E07B681B685B68DBB203F08C
:1044B0007F03DAB2FB6A1A707B689B6A5A1C7B68BE
:1044C0009A627B68DB8D9BB2013B9BB27A6819468E
:1044D000D185002B5DD17B681B68DA687B681B681F
:1044E00022F02002DA607B681B68DA687B681B6850
:1044F00022F48072DA607B681B685A697B681B68EB
:1045000022F001025A617B68202283F842207B68F6
:1045100000225A637B681B6B012B35D17B6800221C
:104520001A637B681B680C337B617B6953E8003F2F
:104530003B613B6923F010037B627B681B680C3393
:104540007A6A3A62FB61F9693A6A41E80023BB6121
:10455000BB69002BE5D17B681B681B6803F0100367
:10456000102B0AD10023FB607B681B681B68FB6073
:104570007B681B685B68FB60FB687B689B8D1946EA
:104580007868FFF70BFE02E07868FFF7F3FD002381
:1045900002E0002300E0022318463037BD4680BD0C
:1045A0002DE9B04FC0B000AFC7F8F400D7F8F43031
:1045B0001B681B6923F44050D7F8F430D968D7F84A
:1045C000F4301A6840EA01031361D7F8F4309A68AE
:1045D000D7F8F4301B691A43D7F8F4305B691A43F3
:1045E000D7F8F430DB691343C7F8F830D7F8F43064
:1045F0001B68DB6823F4164121F00C01D7F8F43076
:104600001A68D7F8F8300B43D360D7F8F4301B683A
:104610005B6923F44070D7F8F4309969D7F8F43027
:104620001A6840EA01035361D7F8F4301A688F4BD7
:104630009A4205D0D7F8F4301A688D4B9A4204D1CB
:10464000FEF736FCC7F8FC0003E0FEF71DFCC7F8D8
:10465000FC00D7F8F430DB69B3F5004F40F00C8173
:10466000D7F8FC300022C7F8E830C7F8EC20D7E9CB
:104670003A4522462B469118B9655B41FB65D7E95F
:104680001623214612EB0108294643EB01094FF09E
:1046900000024FF000034FEAC90343EA58734FEAA0
:1046A000C80290469946234618EB0303C7F8E0304A
:1046B0002B4649EB0303C7F8E430D7F8F4305B68C6
:1046C0000022C7F8D830C7F8DC20D7E936120B46ED
:1046D000DB183B65134642EB03037B65D7E91423E4
:1046E000D7E93801FCF7D8FA02460B46614BA3FB29
:1046F00002235B091C01D7F8FC300022C7F8D03038
:10470000C7F8D420D7E9348942464B469118B9649A
:104710005B41FB64D7E91223414612EB010A49468B
:1047200043EB010B4FF000024FF000034FEACB03C5
:1047300043EA5A734FEACA0292469B4643461AEB33
:104740000303C7F8C8304B464BEB0303C7F8CC3024
:10475000D7F8F4305B680022C7F8C030C7F8C4202F
:10476000D7E930120B46DB183B64134642EB0303D8
:104770007B64D7E91023D7E93201FCF78DFA0246B2
:104780000B4611463B4BA3FB01235B09642202FB52
:1047900003F3CB1ADB0003F13202364BA3FB0223F7
:1047A0005B095B0003F4F8731C44D7F8FC3000226B
:1047B000C7F8B830C7F8BC20D7E92E8942464B4627
:1047C0009118B9635B41FB63D7E90E234146511849
:1047D000396349464B417B634FF000024FF00003C1
:1047E000D7E90CAB5946CB00514643EA51735146C9
:1047F000CA0010461946034642469B18C7F8B03017
:104800004B460A4642EB0303C7F8B430D7F8F430FE
:104810005B680022C7F8A830C7F8AC20D7E92A1295
:104820000B46DB18BB62134642EB0303FB62D7E97E
:104830000A23D7E92C01FCF72FFA02460B460D4B51
:10484000A3FB02135B09642101FB03F3D31ADB0012
:104850003233084AA2FB03235B0903F00702D7F8AF
:10486000F4301B6822449A6006E100BF001001404A
:10487000001401401F85EB51D7F8FC300022C7F827
:10488000A030C7F8A420D7E9288942464B469118A2
:1048900039625B417B62D7E9082341465418494697
:1048A00043EB01054FF000024FF00003EB0043EA39
:1048B0005473E20014461D464346E318C7F8983087
:1048C0004B4645EB0303C7F89C30D7F8F4305B68E0
:1048D0000022C7F89030C7F894204FF000024FF044
:1048E0000003D7E9244529468B00214643EA91730A
:1048F00021468A00D7E92601FCF7CEF902460B468D
:10490000604BA3FB02235B091C01D7F8FC3000229B
:10491000C7F88830C7F88C20D7E9228942464B4631
:104920009118B9615B41FB61D7E9062341465118F3
:10493000396149464B417B614FF000024FF0000363
:10494000D7E904AB5946CB00514643EA517351466F
:10495000CA0010461946034642469B18C7F88030E5
:104960004B460A4642EB0303C7F88430D7F8F430CD
:104970005B680022BB67FA674FF000024FF000034C
:10498000D7E91E8949468B00414643EA9173414667
:104990008A00D7E92001FCF77FF902460B46114651
:1049A000384BA3FB01235B09642202FB03F3CB1A00
:1049B0001B013233334AA2FB03235B0903F0F003EC
:1049C0001C44D7F8FC3000223B677A67D7E91C8982
:1049D00042464B469118B9605B41FB60D7E9022320
:1049E00041465118396049464B417B604FF0000207
:1049F0004FF00003D7E900AB5946CB00514643EADC
:104A000051735146CA0010461946034642469B1848
:104A1000BB664B460A4642EB0303FB66D7F8F4300D
:104A20005B6800223B667A664FF000024FF000039D
:104A3000D7E9188949468B00414643EA91734146BC
:104A40008A00D7E91A01FCF727F902460B460D4BFD
:104A5000A3FB02135B09642101FB03F3D31A1B01BF
:104A60003233084AA2FB03235B0903F00F02D7F895
:104A7000F4301B6822449A6000BF07F58077BD467A
:104A8000BDE8B08F1F85EB512DE9FF4755EC104B6A
:104A9000002D0E4619462B46BBBF05F100431D46AF
:104AA00000232D230B700D9BDDF830A0914623F0E1
:104AB0002008BCBF22461446B8F1460F05D0B8F115
:104AC000450F00D10136022100E0032103AB019321
:104AD00002AB009345EC104B5346324601F084F98B
:104AE000B8F1470F074602D119F0010F22D0B8F1F3
:104AF000460F07EB060910D13B78302B0AD1002274
:104B0000002320462946FBF7E7FF18B9C6F1010646
:104B1000CAF80060DAF800309944002200232046E9
:104B20002946FBF7D9FF08B1CDF80C903022039B42
:104B30004B4507D3039B0E9ADB1B3846136004B02A
:104B4000BDE8F087591C03911A70F0E7F7B50346EA
:104B50000029B8BF494203F8022BB4BF2D222B22F3
:104B6000092942702ADD0DF1070217460A269446EC
:104B700091FBF6F506FB151430340CF8014C0C468D
:104B8000632C02F1FF322946F1DC3031ACF1020432
:104B900002F8011C411C2246BA420AD30DF1090257
:104BA000A2EB0C02BC4288BF00221344181A03B0C7
:104BB000F0BD12F8015B01F8015FEDE73023303101
:104BC0008370C170031DF1E72DE9F04F2DED028BCD
:104BD0008DB00C46DDF8608016461F46054600F095
:104BE000EFFFD0F800A05046FBF74AFB00230A93E2
:104BF00023680593D8F8003094F818B0073323F0F1
:104C0000070303F10802C8F80020D3E9008929F05E
:104C100000430793CDF8188008EE100AC4E9128902
:104C2000DDE906019E4B4FF0FF32FBF787FF88BBA3
:104C3000DDE906019A4B4FF0FF32FBF761FF48BBFD
:104C40000022002340464946FBF750FF10B12D23B8
:104C500084F84330934A944BBBF1470F94BF90467E
:104C6000984603232361059B23F0040323604FF040
:104C70000009009733460BAA2146284600F0DAF9CE
:104C8000013040F090804FF0FF300DB0BDEC028B52
:104C9000BDE8F08F42464B4640464946FBF74EFF83
:104CA00040B14B46002BBCBF2D2384F843307F4AD4
:104CB0007F4BD1E763680BF0DF0206925A1C3FD1AD
:104CC00006236360059B616843F4806200230393BD
:104CD0000AABCDE901B309AB49EC108B009322601C
:104CE0000DF123032846FFF7CFFE069B0999472BBA
:104CF000804608D1C81C02DB6368994241DDABF1F4
:104D000002035FFA83FBBBF1650F20D801395A46D5
:104D100004F150000991FFF719FF0A9A1318012AAC
:104D20008146236102DC2268D20701D50133236169
:104D30009DF82330002B9CD02D2384F8433098E736
:104D4000069A472ABED1002BBCD10123B9E7BBF19B
:104D5000660F18D1002963680BDD216113B9226841
:104D6000D00702D501330B442361A1654FF0000940
:104D7000DEE713B92268D20701D50233F4E7012335
:104D8000F2E74FF0670B0A9B994205DB236821612C
:104D9000D807EAD54B1CE7E70029D4BFC1F10202CE
:104DA00001221344E0E723685A0507D423694246E9
:104DB00031462846B84701302CD164E7BBF1650F76
:104DC00040F2E080D4E9120100220023FBF784FEC8
:104DD000002834D0374A012331462846B8470130ED
:104DE0003FF451AFDDE909239A4202DB2368D8077B
:104DF00010D518EE103A524631462846B8470130D1
:104E00003FF441AF4FF0000804F11A090A9B013B3F
:104E1000434509DC23689B0700F10781E0680B9B91
:104E20009842B8BF184630E701234A463146284623
:104E3000B84701303FF427AF08F10108E6E7099BC6
:104E4000002B39DC1B4A012331462846B847013084
:104E50003FF419AFDDE90932134302D12368D907C2
:104E6000D8D518EE103A524631462846B847013098
:104E70003FF409AF4FF0000904F11A0A099B5B42A5
:104E80004B4501DC0A9B92E70123524631462846F6
:104E9000B84701303FF4F7AE09F10109EEE700BF72
:104EA000FFFFEF7F389400083C940008409400080E
:104EB00044940008489400080A9AA36D9A42A8BF37
:104EC0001A46002A914637DC4FF0000B29EAE979AF
:104ED00004F11A02A36D0593A3EB09035B4533DCD0
:104EE000DDE909239A423BDB2368DA0738D4DDE9A0
:104EF0000932A2EB0309059BD21A9145A8BF91463E
:104F0000B9F1000F35DC4FF0000829EAE97904F126
:104F10001A0ADDE909239B1AA3EB090343457FF72E
:104F200079AF0123524631462846B84701303FF455
:104F3000AAAE08F10108ECE713463146424628467E
:104F4000B8470130C0D19EE601233146284605927C
:104F5000B84701303FF497AE059A0BF1010BB9E762
:104F600018EE103A524631462846B8470130BED1B5
:104F700089E6059A4B46424431462846B8470130F7
:104F8000C1D180E60A9A012A01DCDB073AD5012368
:104F9000424631462846B84701303FF474AE18EE19
:104FA000103A524631462846B84701303FF46BAEBE
:104FB000D4E9120100220023DDF828A0FBF78CFDC4
:104FC000D8B90AF1FF3308F1010231462846B84743
:104FD00001300ED157E60123524631462846B847E4
:104FE00001303FF450AE08F101080A9B013B4345F4
:104FF000F1DC4B4604F15002DAE64FF0000804F110
:105000001A0AF2E701234246DFE701234A46314606
:105010002846B84701303FF436AE08F10108E3688E
:105020000B995B1A4345F0DCF8E64FF0000804F1F9
:105030001909F4E72DE9F047164699468A680B6985
:10504000DDF820809342B8BF1346336091F84320C7
:1050500007460C460AB1013333602368990642BF04
:10506000336802333360256815F0060506D104F174
:10507000190AE36832689B1AAB4226DC94F8432095
:10508000131E226818BF012392062BD404F1430299
:1050900049463846C04701301ED02368226903F0D4
:1050A0000603042B02BFE5683368ED1AA3680CBF42
:1050B00025EAE57500259342C4BF9B1AED1800262A
:1050C0001A34B5421AD1002008E00123524649465D
:1050D0003846C047013003D14FF0FF30BDE8F087BC
:1050E0000135C6E7E1185A1C302081F843002244FC
:1050F00094F8451082F843100233C7E70123224693
:1051000049463846C0470130E6D00136D9E70000AD
:105110002DE9FF470F7E0C9D782F914680460C4667
:105120009A4601F1430207D8622F0AD8002F00F0F7
:10513000D480582F00F0C08004F1420584F84270FA
:105140003AE0A7F16303152BF6D801A151F823F03B
:10515000A9510008BD510008395100083951000813
:105160003951000839510008BD5100083951000873
:10517000395100083951000839510008C15200085E
:10518000E95100087B5200083951000839510008E4
:10519000E352000839510008E9510008395100086C
:1051A00039510008835200082B681A1D1B682A60B9
:1051B00004F1420584F8423001239FE020682B6807
:1051C000070603F10401296001D51E6803E04606C5
:1051D000FBD5B3F90060002E03DA2D23764284F864
:1051E00043305A480A2312E02B682068191D2960B1
:1051F000050601D51E6802E04106FBD51E8853480E
:105200006F2F0CBF08230A23002184F84310656820
:10521000A560002DA2BF216821F0040121600EB914
:10522000002D4BD01546B6FBF3F103FB1167C75DAC
:1052300005F8017D3746BB420E46F4D9082B0BD149
:105240002368DE0708D5236961689942DEBF3023F1
:1052500005F8013C05F1FF35521B2261CDF800A095
:105260004B4603AA21464046FFF7E4FE01304AD1EF
:105270004FF0FF3004B0BDE8F087236843F020030F
:1052800023603348782784F84570236829681F060F
:1052900051F8046B02D45F0648BFB6B2DF0748BFBF
:1052A00043F02003296048BF23601EB9236823F020
:1052B000200323601023A7E72448E4E71546BDE751
:1052C0002B6826686169181D286035061B6801D5A2
:1052D000196002E07006FBD5198000232361154692
:1052E000BCE72B681A1D2A601D68626800212846E9
:1052F000FAF776FF08B1401B606063682361002302
:1053000084F84330AAE723692A4649464046D047F5
:105310000130ADD023689B0713D4E068039B98420B
:10532000B8BF1846A6E70123324649464046D04753
:1053300001309DD00135E36803995B1AAB42F2DC82
:10534000EBE7002504F11906F5E700BF4A940008D1
:105350005B9400082DE9F04F87B0174603938B68E4
:105360005A1EB2F5AE7F83BF6FF4AE755B19029320
:10537000002386BF40F25D138B6002930B688B465F
:10538000002543F4F0634BF81C3BCDE904558046FF
:105390000C465E46AA46A9460195A26852B13B68F2
:1053A0001B784E2B64D8402B3CD8A3F12B01C8B2FC
:1053B0000E283AD9B9F1000F03D0236823F4807383
:1053C00023600AF1FF3ABAF1010F00F213815E4542
:1053D00000F205810125284607B0BDE8F08FA3F152
:1053E00061020D2AE6D801A151F822F02B550008E0
:1053F000B5530008B5530008B55300088B55000895
:1054000063550008B5530008B55300083955000826
:10541000B5530008B5530008B5530008B55300084C
:10542000F1540008A3F14102DBE70E29C2D801A024
:1054300050F821F0E3540008B5530008E354000885
:1054400077550008B553000891540008CD54000862
:10545000CD540008CD540008CD540008CD540008A8
:10546000CD540008CD540008CD540008CD54000898
:105470006E2B09D8602BB2D8542B77D0592B99D1E9
:10548000072D97D1082529E0742B6FD0792BF6E7EB
:105490002168C8051AD5029B21F08001216009F11D
:1054A00001091BB1013B01320293A260A368013BD9
:1054B000A3602369013323617B68013B002B7B6080
:1054C00040F384803B6801333B6066E71AEB050FCD
:1054D0007FF470AF226822F4C072226006F8013BAC
:1054E000E4E7226810067FF565AF22F08002F4E75A
:1054F000BAF1000F0ED1B9F1000F0ED1226802F4FB
:10550000E061B1F5E06F08D122F4F06222604FF063
:10551000010AE3E7BAF1020F55D0012D02D0042DA4
:105520007FF448AF0135EDB2D8E7BAF1010F7FF44F
:1055300041AF4FF0020AD1E77DB9B9F1000F7FF416
:105540003CAF226802F4E061B1F5E06F7FF439AF5F
:1055500022F4F06222600125C0E7032DE2D0052D80
:10556000DEE7022D7FF426AF0325B7E7062D7FF493
:1055700021AF0725B2E7226891057FF51BAF22F422
:1055800020722260CDF80490A8E7226802F4A0619E
:10559000B1F5806F06D050057FF50CAFB9F1000F63
:1055A0003FF40FAF910558BF019922F4F06258BF44
:1055B000A9EB010142F4C07258BFCDE90416226084
:1055C0004FF000098AE74FF0030A87E7D4F88031EB
:1055D00039464046984700283FF4DFAEEAE6D4F863
:1055E0007C3116F8011D3A46404698472369013B35
:1055F0002361ECE66B1E062B25D8022D36D85E45BE
:105600007FF6E8AED4F87C3116F8011D3A464046E4
:1056100098472369013B2361F1E70298D4F87C3174
:1056200010F8011D02903A46404698472369013B15
:1056300023610AF1FF3A5FFA8AFABAF1020FECD15C
:10564000033DEDB2761B2368DA052FD55B0510D537
:105650005E457FF6BFAED4F87C3116F8011D3A46A0
:10566000404698472369013B2361F1E7AA46029629
:10567000DFE716F8011C2369652903F1FF3306F102
:10568000FF3523610CD045290AD0D4F87C313A4645
:1056900040469847236916F8021C013BB51E23615A
:1056A000D4F87C313A46404698472E46256815F096
:1056B000100558D13570236803F4C063B3F5806FCB
:1056C0001CD1019B4B45A3EB090224D10022594672
:1056D000404602F035FD039B21681B6811F0020F64
:1056E00057EC106B03F1040220D003990A601B6889
:1056F000C3E90067E3680133E3606CE6049B002BB9
:10570000E4D005990A232A460131404602F0A0FD63
:10571000049B059EC21A04F26F139E4228BF04F533
:10572000B7761249304600F04BF9CFE711F0040F7D
:1057300003990A60DBD1D3F8008010EE102A10EE36
:10574000100A3B463946FBF7F9F928B1084800F042
:10575000BBFA88ED000ACDE730463946FBF74CFA34
:10576000C8F80000C6E7002535E600BF6C940008C5
:10577000FD970008002310B50446C0E90033C0E9D6
:105780000433836081814366C281836119460822A4
:105790005C3000F00DFA054B6362054BA362054BCC
:1057A000E362054B2462236310BD00BF015A000869
:1057B000235A00085B5A00087F5A0008024A03492E
:1057C000034800F069B800BF0C0000209988000869
:1057D0001800002041680C4B994210B5044601D0D6
:1057E00003F05AF8A168094B994202D0204603F011
:1057F00053F8E168064B994204D02046BDE81040BA
:1058000003F04AB810BD00BFE004002048050020A6
:10581000B005002010B50B4B0B4C0C4A1A6020460B
:1058200000220421FFF7A6FF04F1680001220921EC
:10583000FFF7A0FF04F1D0000222BDE810401221C2
:10584000FFF798BF18060020E0040020BD570008AD
:10585000014800F029BA00BF21060020014800F0ED
:1058600024BA00BF2106002010B50446FFF7F0FF60
:10587000236A1BB1BDE81040FFF7F0BF044B236261
:10588000044B1B68002BF5D1FFF7C4FFF2E700BF04
:10589000D5570008180600202DE9F843074688462A
:1058A00014460026D4E90195B9F1010905D524680B
:1058B000002CF7D13046BDE8F883AB89012B07D91E
:1058C000B5F90E30013303D029463846C0470643A8
:1058D0006835E9E70FB407B5064904AB086853F823
:1058E000042B8168019302F037FE03B05DF804EBEE
:1058F00004B0704764000020024B014618688268BB
:1059000003F054B864000020036A70B5846805464B
:105910000E460BB9FFF7A8FF636EDB0705D4A3891A
:10592000980502D4A06D00F0BFF9A389190713D51B
:1059300023698BB1013EA36816F8011F013BA360E8
:10594000E9B9002B2EDA22460A21284600F09BF8FE
:10595000013007D00A2507E02146284600F0D0F89C
:105960000028E7D04FF0FF35636EDA0705D4A3892E
:105970009B0502D4A06D00F098F9284670BD002B5D
:1059800004DAA2699A4206DC0A2904D023685A1C68
:1059900022601970CFE72246284600F074F80130E3
:1059A000C9D1DFE723680A255A1C22601D70DBE796
:1059B000024B01461868FFF7A7BF00BF6400002034
:1059C0000EB400B59CB01DAB029006906FF0004184
:1059D000094807910491094953F8042B059100687F
:1059E000019302A902F090FC029B00221A701CB0E5
:1059F0005DF804EB03B07047640000200802FFFF6D
:105A000010B50C46B1F90E1000F000F90028ABBF3C
:105A1000636DA3891B1823F48053ACBF6365A38116
:105A200010BD2DE9F0411F468B89DB0505460C466C
:105A3000164605D5B1F90E100223002200F0D4F865
:105A4000A389B4F90E1023F48053A38132463B4658
:105A50002846BDE8F04100F0EBB810B50C46B1F9AE
:105A60000E1000F0C1F8431CA38915BF606523F434
:105A7000805343F48053A38118BFA38110BDB1F9B3
:105A80000E1000F0A1B8F8B50E461446054618B140
:105A9000036A0BB9FFF7E8FEA369A360A3891A079D
:105AA00025D523691BB323682269981A6369F6B266
:105AB0008342374604DC2146284602F0EDFEE0B979
:105AC000A368013BA36023685A1C22601E706269B0
:105AD000431C9A4204D0A389DB0706D50A2E04D1C1
